{
  "address": "0xB3C9c6b890d2D0fD0cb50906679181eA471F9172",
  "abi": [
    {
      "inputs": [
        {
          "internalType": "address",
          "name": "_factory",
          "type": "address"
        },
        {
          "internalType": "address",
          "name": "_weth",
          "type": "address"
        }
      ],
      "stateMutability": "nonpayable",
      "type": "constructor"
    },
    {
      "anonymous": false,
      "inputs": [
        {
          "indexed": true,
          "internalType": "address",
          "name": "pairAddress",
          "type": "address"
        },
        {
          "indexed": false,
          "internalType": "uint256",
          "name": "amountA",
          "type": "uint256"
        },
        {
          "indexed": false,
          "internalType": "uint256",
          "name": "amountB",
          "type": "uint256"
        },
        {
          "indexed": false,
          "internalType": "uint256",
          "name": "liquidity",
          "type": "uint256"
        }
      ],
      "name": "LiquidityAdded",
      "type": "event"
    },
    {
      "anonymous": false,
      "inputs": [
        {
          "indexed": true,
          "internalType": "address",
          "name": "pairAddress",
          "type": "address"
        },
        {
          "indexed": false,
          "internalType": "uint256",
          "name": "amountA",
          "type": "uint256"
        },
        {
          "indexed": false,
          "internalType": "uint256",
          "name": "amountB",
          "type": "uint256"
        },
        {
          "indexed": false,
          "internalType": "uint256",
          "name": "liquidity",
          "type": "uint256"
        }
      ],
      "name": "LiquidityRemoved",
      "type": "event"
    },
    {
      "inputs": [],
      "name": "WETH",
      "outputs": [
        {
          "internalType": "address",
          "name": "",
          "type": "address"
        }
      ],
      "stateMutability": "view",
      "type": "function"
    },
    {
      "inputs": [
        {
          "internalType": "address",
          "name": "_tokenA",
          "type": "address"
        },
        {
          "internalType": "address",
          "name": "_tokenB",
          "type": "address"
        },
        {
          "internalType": "uint256",
          "name": "_amountADesired",
          "type": "uint256"
        },
        {
          "internalType": "uint256",
          "name": "_amountBDesired",
          "type": "uint256"
        },
        {
          "internalType": "uint256",
          "name": "_amountAMin",
          "type": "uint256"
        },
        {
          "internalType": "uint256",
          "name": "_amountBMin",
          "type": "uint256"
        },
        {
          "internalType": "address",
          "name": "_to",
          "type": "address"
        },
        {
          "internalType": "uint256",
          "name": "_deadline",
          "type": "uint256"
        }
      ],
      "name": "addLiquidity",
      "outputs": [
        {
          "internalType": "uint256",
          "name": "amountA",
          "type": "uint256"
        },
        {
          "internalType": "uint256",
          "name": "amountB",
          "type": "uint256"
        },
        {
          "internalType": "uint256",
          "name": "liquidity",
          "type": "uint256"
        }
      ],
      "stateMutability": "nonpayable",
      "type": "function"
    },
    {
      "inputs": [
        {
          "internalType": "address",
          "name": "_token",
          "type": "address"
        },
        {
          "internalType": "uint256",
          "name": "_amountTokenDesired",
          "type": "uint256"
        },
        {
          "internalType": "uint256",
          "name": "_amountTokenMin",
          "type": "uint256"
        },
        {
          "internalType": "uint256",
          "name": "_amountETHMin",
          "type": "uint256"
        },
        {
          "internalType": "address",
          "name": "_to",
          "type": "address"
        },
        {
          "internalType": "uint256",
          "name": "_deadline",
          "type": "uint256"
        }
      ],
      "name": "addLiquidityETH",
      "outputs": [
        {
          "internalType": "uint256",
          "name": "amountToken",
          "type": "uint256"
        },
        {
          "internalType": "uint256",
          "name": "amountETH",
          "type": "uint256"
        },
        {
          "internalType": "uint256",
          "name": "liquidity",
          "type": "uint256"
        }
      ],
      "stateMutability": "payable",
      "type": "function"
    },
    {
      "inputs": [],
      "name": "factory",
      "outputs": [
        {
          "internalType": "address",
          "name": "",
          "type": "address"
        }
      ],
      "stateMutability": "view",
      "type": "function"
    },
    {
      "inputs": [
        {
          "internalType": "uint256",
          "name": "_amountOut",
          "type": "uint256"
        },
        {
          "internalType": "address",
          "name": "_tokenIn",
          "type": "address"
        },
        {
          "internalType": "address",
          "name": "_tokenOut",
          "type": "address"
        }
      ],
      "name": "getAmountIn",
      "outputs": [
        {
          "internalType": "uint256",
          "name": "amountIn",
          "type": "uint256"
        }
      ],
      "stateMutability": "view",
      "type": "function"
    },
    {
      "inputs": [
        {
          "internalType": "uint256",
          "name": "_amountIn",
          "type": "uint256"
        },
        {
          "internalType": "address",
          "name": "_tokenIn",
          "type": "address"
        },
        {
          "internalType": "address",
          "name": "_tokenOut",
          "type": "address"
        }
      ],
      "name": "getAmountOut",
      "outputs": [
        {
          "internalType": "uint256",
          "name": "amountOut",
          "type": "uint256"
        }
      ],
      "stateMutability": "view",
      "type": "function"
    },
    {
      "inputs": [
        {
          "internalType": "uint256",
          "name": "_amountOut",
          "type": "uint256"
        },
        {
          "internalType": "address[]",
          "name": "_path",
          "type": "address[]"
        }
      ],
      "name": "getAmountsIn",
      "outputs": [
        {
          "internalType": "uint256[]",
          "name": "amounts",
          "type": "uint256[]"
        }
      ],
      "stateMutability": "view",
      "type": "function"
    },
    {
      "inputs": [
        {
          "internalType": "uint256",
          "name": "_amountIn",
          "type": "uint256"
        },
        {
          "internalType": "address[]",
          "name": "_path",
          "type": "address[]"
        }
      ],
      "name": "getAmountsOut",
      "outputs": [
        {
          "internalType": "uint256[]",
          "name": "amounts",
          "type": "uint256[]"
        }
      ],
      "stateMutability": "view",
      "type": "function"
    },
    {
      "inputs": [
        {
          "internalType": "address",
          "name": "_tokenA",
          "type": "address"
        },
        {
          "internalType": "address",
          "name": "_tokenB",
          "type": "address"
        }
      ],
      "name": "getReserves",
      "outputs": [
        {
          "internalType": "uint112",
          "name": "reserve0",
          "type": "uint112"
        },
        {
          "internalType": "uint112",
          "name": "reserve1",
          "type": "uint112"
        }
      ],
      "stateMutability": "view",
      "type": "function"
    },
    {
      "inputs": [
        {
          "internalType": "uint256",
          "name": "_amountA",
          "type": "uint256"
        },
        {
          "internalType": "uint256",
          "name": "_reserveA",
          "type": "uint256"
        },
        {
          "internalType": "uint256",
          "name": "_reserveB",
          "type": "uint256"
        }
      ],
      "name": "quote",
      "outputs": [
        {
          "internalType": "uint256",
          "name": "amountB",
          "type": "uint256"
        }
      ],
      "stateMutability": "pure",
      "type": "function"
    },
    {
      "inputs": [
        {
          "internalType": "address",
          "name": "_tokenA",
          "type": "address"
        },
        {
          "internalType": "address",
          "name": "_tokenB",
          "type": "address"
        },
        {
          "internalType": "uint256",
          "name": "_liquidity",
          "type": "uint256"
        },
        {
          "internalType": "uint256",
          "name": "_amountAMin",
          "type": "uint256"
        },
        {
          "internalType": "uint256",
          "name": "_amountBMin",
          "type": "uint256"
        },
        {
          "internalType": "address",
          "name": "_to",
          "type": "address"
        },
        {
          "internalType": "uint256",
          "name": "_deadline",
          "type": "uint256"
        }
      ],
      "name": "removeLiquidity",
      "outputs": [
        {
          "internalType": "uint256",
          "name": "amount0",
          "type": "uint256"
        },
        {
          "internalType": "uint256",
          "name": "amount1",
          "type": "uint256"
        }
      ],
      "stateMutability": "nonpayable",
      "type": "function"
    },
    {
      "inputs": [
        {
          "internalType": "address",
          "name": "_token",
          "type": "address"
        },
        {
          "internalType": "uint256",
          "name": "_liquidity",
          "type": "uint256"
        },
        {
          "internalType": "uint256",
          "name": "_amountTokenMin",
          "type": "uint256"
        },
        {
          "internalType": "uint256",
          "name": "_amountETHMin",
          "type": "uint256"
        },
        {
          "internalType": "address",
          "name": "_to",
          "type": "address"
        },
        {
          "internalType": "uint256",
          "name": "_deadline",
          "type": "uint256"
        }
      ],
      "name": "removeLiquidityETH",
      "outputs": [
        {
          "internalType": "uint256",
          "name": "amountToken",
          "type": "uint256"
        },
        {
          "internalType": "uint256",
          "name": "amountETH",
          "type": "uint256"
        }
      ],
      "stateMutability": "nonpayable",
      "type": "function"
    },
    {
      "inputs": [
        {
          "internalType": "uint256",
          "name": "_amountOut",
          "type": "uint256"
        },
        {
          "internalType": "address[]",
          "name": "_path",
          "type": "address[]"
        },
        {
          "internalType": "address",
          "name": "_to",
          "type": "address"
        },
        {
          "internalType": "uint256",
          "name": "_deadline",
          "type": "uint256"
        }
      ],
      "name": "swapETHForExactTokens",
      "outputs": [
        {
          "internalType": "uint256[]",
          "name": "amounts",
          "type": "uint256[]"
        }
      ],
      "stateMutability": "payable",
      "type": "function"
    },
    {
      "inputs": [
        {
          "internalType": "uint256",
          "name": "_amountOutMin",
          "type": "uint256"
        },
        {
          "internalType": "address[]",
          "name": "_path",
          "type": "address[]"
        },
        {
          "internalType": "address",
          "name": "_to",
          "type": "address"
        },
        {
          "internalType": "uint256",
          "name": "_deadline",
          "type": "uint256"
        }
      ],
      "name": "swapExactETHForTokens",
      "outputs": [
        {
          "internalType": "uint256[]",
          "name": "amounts",
          "type": "uint256[]"
        }
      ],
      "stateMutability": "payable",
      "type": "function"
    },
    {
      "inputs": [
        {
          "internalType": "uint256",
          "name": "_amountIn",
          "type": "uint256"
        },
        {
          "internalType": "uint256",
          "name": "_amountOutMin",
          "type": "uint256"
        },
        {
          "internalType": "address[]",
          "name": "_path",
          "type": "address[]"
        },
        {
          "internalType": "address",
          "name": "_to",
          "type": "address"
        },
        {
          "internalType": "uint256",
          "name": "_deadline",
          "type": "uint256"
        }
      ],
      "name": "swapExactTokensForETH",
      "outputs": [
        {
          "internalType": "uint256[]",
          "name": "amounts",
          "type": "uint256[]"
        }
      ],
      "stateMutability": "nonpayable",
      "type": "function"
    },
    {
      "inputs": [
        {
          "internalType": "uint256",
          "name": "_amountIn",
          "type": "uint256"
        },
        {
          "internalType": "uint256",
          "name": "_amountOutMin",
          "type": "uint256"
        },
        {
          "internalType": "address[]",
          "name": "_path",
          "type": "address[]"
        },
        {
          "internalType": "address",
          "name": "_to",
          "type": "address"
        },
        {
          "internalType": "uint256",
          "name": "_deadline",
          "type": "uint256"
        }
      ],
      "name": "swapExactTokensForTokens",
      "outputs": [
        {
          "internalType": "uint256[]",
          "name": "amounts",
          "type": "uint256[]"
        }
      ],
      "stateMutability": "nonpayable",
      "type": "function"
    },
    {
      "inputs": [
        {
          "internalType": "uint256",
          "name": "_amountOut",
          "type": "uint256"
        },
        {
          "internalType": "uint256",
          "name": "_amountInMax",
          "type": "uint256"
        },
        {
          "internalType": "address[]",
          "name": "_path",
          "type": "address[]"
        },
        {
          "internalType": "address",
          "name": "_to",
          "type": "address"
        },
        {
          "internalType": "uint256",
          "name": "_deadline",
          "type": "uint256"
        }
      ],
      "name": "swapTokensForExactETH",
      "outputs": [
        {
          "internalType": "uint256[]",
          "name": "amounts",
          "type": "uint256[]"
        }
      ],
      "stateMutability": "nonpayable",
      "type": "function"
    },
    {
      "inputs": [
        {
          "internalType": "uint256",
          "name": "_amountOut",
          "type": "uint256"
        },
        {
          "internalType": "uint256",
          "name": "_amountInMax",
          "type": "uint256"
        },
        {
          "internalType": "address[]",
          "name": "_path",
          "type": "address[]"
        },
        {
          "internalType": "address",
          "name": "_to",
          "type": "address"
        },
        {
          "internalType": "uint256",
          "name": "_deadline",
          "type": "uint256"
        }
      ],
      "name": "swapTokensForExactTokens",
      "outputs": [
        {
          "internalType": "uint256[]",
          "name": "amounts",
          "type": "uint256[]"
        }
      ],
      "stateMutability": "nonpayable",
      "type": "function"
    },
    {
      "stateMutability": "payable",
      "type": "receive"
    }
  ],
  "transactionHash": "0x324973178f7e3fa50ca60637d3311c1c66a6194b4afd400bfc59b7475eb68ec8",
  "args": [
    "0xF886dDc935E8DA5Da26f58f5D266EFdfDA1AD260",
    "0x4b9c28F574974e3B108bCB76856C5C2aa40bc14C"
  ],
  "numDeployments": 1,
  "solcInputHash": "f71c7515d120a5406563342b21637eec",
  "bytecode": "0x60c06040523480156200001157600080fd5b5060405162003eb038038062003eb0833981016040819052620000349162000069565b6001600160a01b039182166080521660a052620000a1565b80516001600160a01b03811681146200006457600080fd5b919050565b600080604083850312156200007d57600080fd5b62000088836200004c565b915062000098602084016200004c565b90509250929050565b60805160a051613ce6620001ca6000396000818161013d015281816102cb0152818161052e0152818161057d0152818161094001528181610c2e01528181611189015281816116280152818161179c0152818161182a0152818161259d015281816125e401528181612690015281816127250152818161296f01528181612ad30152612b61015260008181610357015281816104460152818161071c0152818161085901528181610ae101528181610e99015281816110a201528181611411015281816115490152818161185901528181611a3401528181611ca301528181611daa01528181612159015281816122420152818161235d015281816124ba015281816126150152818161289001528181612b9001528181612f83015261306a0152613ce66000f3fe60806040526004361061012d5760003560e01c8063ad5c4648116100a5578063d06ca61f11610074578063e8e3370011610059578063e8e33700146103d9578063f305d71914610414578063fb3bdb411461042757600080fd5b8063d06ca61f14610379578063d52bb6f41461039957600080fd5b8063ad5c4648146102b9578063ad615dec14610305578063baa2abde14610325578063c45a01551461034557600080fd5b806338ed1739116100fc5780635e1e6325116100e15780635e1e6325146102665780637ff36ab5146102865780638803dbee1461029957600080fd5b806338ed1739146102265780634a25d94a1461024657600080fd5b806302751cec146101715780630a9a2b72146101ab57806318cbafe5146101d95780631f00ca741461020657600080fd5b3661016c57336001600160a01b037f0000000000000000000000000000000000000000000000000000000000000000161461016a5761016a61362d565b005b600080fd5b34801561017d57600080fd5b5061019161018c36600461366b565b61043a565b604080519283526020830191909152015b60405180910390f35b3480156101b757600080fd5b506101cb6101c63660046136c9565b6105f7565b6040519081526020016101a2565b3480156101e557600080fd5b506101f96101f4366004613757565b61084e565b6040516101a291906137ca565b34801561021257600080fd5b506101f9610221366004613824565b610d0d565b34801561023257600080fd5b506101f9610241366004613757565b610e8e565b34801561025257600080fd5b506101f9610261366004613757565b611097565b34801561027257600080fd5b506101cb6102813660046136c9565b6112ec565b6101f96102943660046138f5565b61153e565b3480156102a557600080fd5b506101f96102b4366004613757565b611a29565b3480156102c557600080fd5b506102ed7f000000000000000000000000000000000000000000000000000000000000000081565b6040516001600160a01b0390911681526020016101a2565b34801561031157600080fd5b506101cb61032036600461395c565b611bcd565b34801561033157600080fd5b50610191610340366004613988565b611c97565b34801561035157600080fd5b506102ed7f000000000000000000000000000000000000000000000000000000000000000081565b34801561038557600080fd5b506101f9610394366004613824565b611fbe565b3480156103a557600080fd5b506103b96103b43660046139fa565b61212b565b604080516001600160701b039384168152929091166020830152016101a2565b3480156103e557600080fd5b506103f96103f4366004613a33565b612235565b604080519384526020840192909252908201526060016101a2565b6103f961042236600461366b565b6124ad565b6101f96104353660046138f5565b612885565b600080828015610528577f00000000000000000000000000000000000000000000000000000000000000006001600160a01b031663be1bd3316040518163ffffffff1660e01b8152600401602060405180830381865afa1580156104a2573d6000803e3d6000fd5b505050506040513d601f19601f820116820180604052508101906104c69190613aaf565b6001600160a01b0316336001600160a01b031614610528578042106105285760405162461bcd60e51b815260206004820152601360248201527232bc3834b932b2103a3930b739b0b1ba34b7b760691b60448201526064015b60405180910390fd5b610557897f00000000000000000000000000000000000000000000000000000000000000008a8a8a308a611c97565b9093509150610567898685612da2565b604051632e1a7d4d60e01b8152600481018390527f00000000000000000000000000000000000000000000000000000000000000006001600160a01b031690632e1a7d4d90602401600060405180830381600087803b1580156105c957600080fd5b505af11580156105dd573d6000803e3d6000fd5b505050506105eb8583612dbb565b50965096945050505050565b6000806000610606858561212b565b6001600160701b031691506001600160701b03169150600080856001600160a01b0316876001600160a01b03161061063f578284610642565b83835b91509150600088116106965760405162461bcd60e51b815260206004820152601a60248201527f696e73756666696369656e74206f757470757420616d6f756e74000000000000604482015260640161051f565b6000821180156106a65750600081115b6106f25760405162461bcd60e51b815260206004820152601660248201527f696e73756666696369656e74206c697175696469747900000000000000000000604482015260640161051f565b60405163e6a4390560e01b81526001600160a01b03888116600483015287811660248301526000917f00000000000000000000000000000000000000000000000000000000000000009091169063e6a4390590604401602060405180830381865afa158015610765573d6000803e3d6000fd5b505050506040513d601f19601f820116820180604052508101906107899190613aaf565b6001600160a01b031663978bbdb96040518163ffffffff1660e01b8152600401602060405180830381865afa1580156107c6573d6000803e3d6000fd5b505050506040513d601f19601f820116820180604052508101906107ea9190613acc565b905060006107f88a85613afb565b610804906103e8613afb565b90506000610814836103e8613b1a565b61081e8c86613b1a565b6108289190613afb565b90506108348183613b31565b61083f906001613b53565b9b9a5050505050505050505050565b6060818015610936577f00000000000000000000000000000000000000000000000000000000000000006001600160a01b031663be1bd3316040518163ffffffff1660e01b8152600401602060405180830381865afa1580156108b5573d6000803e3d6000fd5b505050506040513d601f19601f820116820180604052508101906108d99190613aaf565b6001600160a01b0316336001600160a01b031614610936578042106109365760405162461bcd60e51b815260206004820152601360248201527232bc3834b932b2103a3930b739b0b1ba34b7b760691b604482015260640161051f565b6001600160a01b037f000000000000000000000000000000000000000000000000000000000000000016868661096d600182613b1a565b81811061097c5761097c613b6b565b90506020020160208101906109919190613b81565b6001600160a01b0316146109e75760405162461bcd60e51b815260206004820181905260248201527f467572696f6e537761705632526f757465723a20494e56414c49445f50415448604482015260640161051f565b610a2488878780806020026020016040519081016040528093929190818152602001838360200280828437600092019190915250611fbe92505050565b9150868260018451610a369190613b1a565b81518110610a4657610a46613b6b565b60200260200101511015610ab35760405162461bcd60e51b815260206004820152602e60248201527f467572696f6e537761705632526f757465723a20494e53554646494349454e5460448201526d17d3d55514155517d05353d5539560921b606482015260840161051f565b610bed86866000818110610ac957610ac9613b6b565b9050602002016020810190610ade9190613b81565b337f00000000000000000000000000000000000000000000000000000000000000006001600160a01b031663e6a439058a8a6000818110610b2157610b21613b6b565b9050602002016020810190610b369190613b81565b8b8b6001818110610b4957610b49613b6b565b9050602002016020810190610b5e9190613b81565b6040516001600160e01b031960e085901b1681526001600160a01b03928316600482015291166024820152604401602060405180830381865afa158015610ba9573d6000803e3d6000fd5b505050506040513d601f19601f82011682018060405250810190610bcd9190613aaf565b85600081518110610be057610be0613b6b565b6020026020010151612e6a565b610c2c82878780806020026020016040519081016040528093929190818152602001838360200280828437600092019190915250309250612e85915050565b7f00000000000000000000000000000000000000000000000000000000000000006001600160a01b0316632e1a7d4d8360018551610c6a9190613b1a565b81518110610c7a57610c7a613b6b565b60200260200101516040518263ffffffff1660e01b8152600401610ca091815260200190565b600060405180830381600087803b158015610cba57600080fd5b505af1158015610cce573d6000803e3d6000fd5b50505050610d02848360018551610ce59190613b1a565b81518110610cf557610cf5613b6b565b6020026020010151612dbb565b509695505050505050565b6060600282511015610d615760405162461bcd60e51b815260206004820152601860248201527f467572696f6e537761703a20494e56414c49445f504154480000000000000000604482015260640161051f565b815167ffffffffffffffff811115610d7b57610d7b61380e565b604051908082528060200260200182016040528015610da4578160200160208202803683370190505b509050828160018351610db79190613b1a565b81518110610dc757610dc7613b6b565b602002602001018181525050600060018351610de39190613b1a565b90505b8015610e8757610e4e828281518110610e0157610e01613b6b565b602002602001015184600184610e179190613b1a565b81518110610e2757610e27613b6b565b6020026020010151858481518110610e4157610e41613b6b565b60200260200101516105f7565b82610e5a600184613b1a565b81518110610e6a57610e6a613b6b565b602090810291909101015280610e7f81613b9e565b915050610de6565b5092915050565b6060818015610f76577f00000000000000000000000000000000000000000000000000000000000000006001600160a01b031663be1bd3316040518163ffffffff1660e01b8152600401602060405180830381865afa158015610ef5573d6000803e3d6000fd5b505050506040513d601f19601f82011682018060405250810190610f199190613aaf565b6001600160a01b0316336001600160a01b031614610f7657804210610f765760405162461bcd60e51b815260206004820152601360248201527232bc3834b932b2103a3930b739b0b1ba34b7b760691b604482015260640161051f565b610fb388878780806020026020016040519081016040528093929190818152602001838360200280828437600092019190915250611fbe92505050565b9150868260018451610fc59190613b1a565b81518110610fd557610fd5613b6b565b602002602001015110156110425760405162461bcd60e51b815260206004820152602e60248201527f467572696f6e537761705632526f757465723a20494e53554646494349454e5460448201526d17d3d55514155517d05353d5539560921b606482015260840161051f565b61105886866000818110610ac957610ac9613b6b565b610d0282878780806020026020016040519081016040528093929190818152602001838360200280828437600092019190915250899250612e85915050565b606081801561117f577f00000000000000000000000000000000000000000000000000000000000000006001600160a01b031663be1bd3316040518163ffffffff1660e01b8152600401602060405180830381865afa1580156110fe573d6000803e3d6000fd5b505050506040513d601f19601f820116820180604052508101906111229190613aaf565b6001600160a01b0316336001600160a01b03161461117f5780421061117f5760405162461bcd60e51b815260206004820152601360248201527232bc3834b932b2103a3930b739b0b1ba34b7b760691b604482015260640161051f565b6001600160a01b037f00000000000000000000000000000000000000000000000000000000000000001686866111b6600182613b1a565b8181106111c5576111c5613b6b565b90506020020160208101906111da9190613b81565b6001600160a01b0316146112305760405162461bcd60e51b815260206004820181905260248201527f467572696f6e537761705632526f757465723a20494e56414c49445f50415448604482015260640161051f565b61126d88878780806020026020016040519081016040528093929190818152602001838360200280828437600092019190915250610d0d92505050565b9150868260008151811061128357611283613b6b565b60200260200101511115610ab35760405162461bcd60e51b815260206004820152602a60248201527f467572696f6e537761705632526f757465723a204558434553534956455f494e60448201526914155517d05353d5539560b21b606482015260840161051f565b60008060006112fb858561212b565b6001600160701b031691506001600160701b03169150600080856001600160a01b0316876001600160a01b031610611334578284611337565b83835b915091506000881161138b5760405162461bcd60e51b815260206004820152601960248201527f696e73756666696369656e7420696e70757420616d6f756e7400000000000000604482015260640161051f565b60008211801561139b5750600081115b6113e75760405162461bcd60e51b815260206004820152601660248201527f696e73756666696369656e74206c697175696469747900000000000000000000604482015260640161051f565b60405163e6a4390560e01b81526001600160a01b03888116600483015287811660248301526000917f00000000000000000000000000000000000000000000000000000000000000009091169063e6a4390590604401602060405180830381865afa15801561145a573d6000803e3d6000fd5b505050506040513d601f19601f8201168201806040525081019061147e9190613aaf565b6001600160a01b031663978bbdb96040518163ffffffff1660e01b8152600401602060405180830381865afa1580156114bb573d6000803e3d6000fd5b505050506040513d601f19601f820116820180604052508101906114df9190613acc565b905060006114ef826103e8613b1a565b6114f9908b613afb565b905060006115078483613afb565b9050600082611518876103e8613afb565b6115229190613b53565b905061152e8183613b31565b9c9b505050505050505050505050565b6060818015611626577f00000000000000000000000000000000000000000000000000000000000000006001600160a01b031663be1bd3316040518163ffffffff1660e01b8152600401602060405180830381865afa1580156115a5573d6000803e3d6000fd5b505050506040513d601f19601f820116820180604052508101906115c99190613aaf565b6001600160a01b0316336001600160a01b031614611626578042106116265760405162461bcd60e51b815260206004820152601360248201527232bc3834b932b2103a3930b739b0b1ba34b7b760691b604482015260640161051f565b7f00000000000000000000000000000000000000000000000000000000000000006001600160a01b03168686600081811061166357611663613b6b565b90506020020160208101906116789190613b81565b6001600160a01b0316146116ce5760405162461bcd60e51b815260206004820181905260248201527f467572696f6e537761705632526f757465723a20494e56414c49445f50415448604482015260640161051f565b61170b34878780806020026020016040519081016040528093929190818152602001838360200280828437600092019190915250611fbe92505050565b915086826001845161171d9190613b1a565b8151811061172d5761172d613b6b565b6020026020010151101561179a5760405162461bcd60e51b815260206004820152602e60248201527f467572696f6e537761705632526f757465723a20494e53554646494349454e5460448201526d17d3d55514155517d05353d5539560921b606482015260840161051f565b7f00000000000000000000000000000000000000000000000000000000000000006001600160a01b031663d0e30db0836000815181106117dc576117dc613b6b565b60200260200101516040518263ffffffff1660e01b81526004016000604051808303818588803b15801561180f57600080fd5b505af1158015611823573d6000803e3d6000fd5b50505050507f00000000000000000000000000000000000000000000000000000000000000006001600160a01b031663a9059cbb7f00000000000000000000000000000000000000000000000000000000000000006001600160a01b031663e6a439058989600081811061189957611899613b6b565b90506020020160208101906118ae9190613b81565b8a8a60018181106118c1576118c1613b6b565b90506020020160208101906118d69190613b81565b6040516001600160e01b031960e085901b1681526001600160a01b03928316600482015291166024820152604401602060405180830381865afa158015611921573d6000803e3d6000fd5b505050506040513d601f19601f820116820180604052508101906119459190613aaf565b8460008151811061195857611958613b6b565b60200260200101516040518363ffffffff1660e01b81526004016119919291906001600160a01b03929092168252602082015260400190565b6020604051808303816000875af11580156119b0573d6000803e3d6000fd5b505050506040513d601f19601f820116820180604052508101906119d49190613bb5565b6119e0576119e061362d565b611a1f82878780806020026020016040519081016040528093929190818152602001838360200280828437600092019190915250899250612e85915050565b5095945050505050565b6060818015611b11577f00000000000000000000000000000000000000000000000000000000000000006001600160a01b031663be1bd3316040518163ffffffff1660e01b8152600401602060405180830381865afa158015611a90573d6000803e3d6000fd5b505050506040513d601f19601f82011682018060405250810190611ab49190613aaf565b6001600160a01b0316336001600160a01b031614611b1157804210611b115760405162461bcd60e51b815260206004820152601360248201527232bc3834b932b2103a3930b739b0b1ba34b7b760691b604482015260640161051f565b611b4e88878780806020026020016040519081016040528093929190818152602001838360200280828437600092019190915250610d0d92505050565b91508682600081518110611b6457611b64613b6b565b602002602001015111156110425760405162461bcd60e51b815260206004820152602a60248201527f467572696f6e537761705632526f757465723a204558434553534956455f494e60448201526914155517d05353d5539560b21b606482015260840161051f565b6000808411611c1e5760405162461bcd60e51b815260206004820152601360248201527f696e73756666696369656e7420616d6f756e7400000000000000000000000000604482015260640161051f565b600083118015611c2e5750600082115b611c7a5760405162461bcd60e51b815260206004820152601660248201527f696e73756666696369656e74206c697175696469747900000000000000000000604482015260640161051f565b82611c858386613afb565b611c8f9190613b31565b949350505050565b600080828015611d80577f00000000000000000000000000000000000000000000000000000000000000006001600160a01b031663be1bd3316040518163ffffffff1660e01b8152600401602060405180830381865afa158015611cff573d6000803e3d6000fd5b505050506040513d601f19601f82011682018060405250810190611d239190613aaf565b6001600160a01b0316336001600160a01b031614611d8057804210611d805760405162461bcd60e51b815260206004820152601360248201527232bc3834b932b2103a3930b739b0b1ba34b7b760691b604482015260640161051f565b60405163e6a4390560e01b81526001600160a01b038b811660048301528a811660248301526000917f00000000000000000000000000000000000000000000000000000000000000009091169063e6a4390590604401602060405180830381865afa158015611df3573d6000803e3d6000fd5b505050506040513d601f19601f82011682018060405250810190611e179190613aaf565b9050611e2e6001600160a01b03821633838c61315c565b60405163226bf2d160e21b81526001600160a01b0387811660048301528216906389afcb449060240160408051808303816000875af1158015611e75573d6000803e3d6000fd5b505050506040513d601f19601f82011682018060405250810190611e999190613bd7565b90945092506000806001600160a01b03808d16908e1610611ebb57888a611ebe565b89895b9150915081861015611f125760405162461bcd60e51b815260206004820152601e60248201527f496e73756666696369656e7420616d6f756e7420666f7220746f6b656e300000604482015260640161051f565b80851015611f625760405162461bcd60e51b815260206004820152601e60248201527f496e73756666696369656e7420616d6f756e7420666f7220746f6b656e310000604482015260640161051f565b60408051878152602081018790529081018c90526001600160a01b038416907f1dc8bb69df2b8e91fbdcbfcf93d951b3f0000f085a95fe3f7946d6161439245d9060600160405180910390a25050505097509795505050505050565b60606002825110156120125760405162461bcd60e51b815260206004820152601860248201527f467572696f6e537761703a20494e56414c49445f504154480000000000000000604482015260640161051f565b815167ffffffffffffffff81111561202c5761202c61380e565b604051908082528060200260200182016040528015612055578160200160208202803683370190505b509050828160008151811061206c5761206c613b6b565b60200260200101818152505060005b600183516120899190613b1a565b811015610e87576120f28282815181106120a5576120a5613b6b565b60200260200101518483815181106120bf576120bf613b6b565b6020026020010151858460016120d59190613b53565b815181106120e5576120e5613b6b565b60200260200101516112ec565b826120fe836001613b53565b8151811061210e5761210e613b6b565b60209081029190910101528061212381613bfb565b91505061207b565b60405163e6a4390560e01b81526001600160a01b0383811660048301528281166024830152600091829182917f00000000000000000000000000000000000000000000000000000000000000009091169063e6a4390590604401602060405180830381865afa1580156121a2573d6000803e3d6000fd5b505050506040513d601f19601f820116820180604052508101906121c69190613aaf565b9050806001600160a01b0316630902f1ac6040518163ffffffff1660e01b81526004016040805180830381865afa158015612205573d6000803e3d6000fd5b505050506040513d601f19601f820116820180604052508101906122299190613c2b565b90969095509350505050565b6000808083801561231f577f00000000000000000000000000000000000000000000000000000000000000006001600160a01b031663be1bd3316040518163ffffffff1660e01b8152600401602060405180830381865afa15801561229e573d6000803e3d6000fd5b505050506040513d601f19601f820116820180604052508101906122c29190613aaf565b6001600160a01b0316336001600160a01b03161461231f5780421061231f5760405162461bcd60e51b815260206004820152601360248201527232bc3834b932b2103a3930b739b0b1ba34b7b760691b604482015260640161051f565b61232d8c8c8c8c8c8c6131dc565b60405163e6a4390560e01b81526001600160a01b038f811660048301528e811660248301529296509094506000917f0000000000000000000000000000000000000000000000000000000000000000169063e6a4390590604401602060405180830381865afa1580156123a4573d6000803e3d6000fd5b505050506040513d601f19601f820116820180604052508101906123c89190613aaf565b90506123d68d338388612e6a565b6123e28c338387612e6a565b6040516335313c2160e11b81526001600160a01b038881166004830152821690636a627842906024016020604051808303816000875af115801561242a573d6000803e3d6000fd5b505050506040513d601f19601f8201168201806040525081019061244e9190613acc565b60408051878152602081018790529081018290529093506001600160a01b038216907f64b83944e79c3ce8d4c297411de637c3e102d064677aac0c163976ebdcd6f50e9060600160405180910390a25050985098509895505050505050565b60008080838015612597577f00000000000000000000000000000000000000000000000000000000000000006001600160a01b031663be1bd3316040518163ffffffff1660e01b8152600401602060405180830381865afa158015612516573d6000803e3d6000fd5b505050506040513d601f19601f8201168201806040525081019061253a9190613aaf565b6001600160a01b0316336001600160a01b031614612597578042106125975760405162461bcd60e51b815260206004820152601360248201527232bc3834b932b2103a3930b739b0b1ba34b7b760691b604482015260640161051f565b6125c58a7f00000000000000000000000000000000000000000000000000000000000000008b348c8c6131dc565b60405163e6a4390560e01b81526001600160a01b038d811660048301527f0000000000000000000000000000000000000000000000000000000000000000811660248301529296509094506000917f0000000000000000000000000000000000000000000000000000000000000000169063e6a4390590604401602060405180830381865afa15801561265c573d6000803e3d6000fd5b505050506040513d601f19601f820116820180604052508101906126809190613aaf565b905061268e8b338388612e6a565b7f00000000000000000000000000000000000000000000000000000000000000006001600160a01b031663d0e30db0856040518263ffffffff1660e01b81526004016000604051808303818588803b1580156126e957600080fd5b505af11580156126fd573d6000803e3d6000fd5b505060405163a9059cbb60e01b81526001600160a01b038581166004830152602482018990527f000000000000000000000000000000000000000000000000000000000000000016935063a9059cbb925060440190506020604051808303816000875af1158015612772573d6000803e3d6000fd5b505050506040513d601f19601f820116820180604052508101906127969190613bb5565b6127a2576127a261362d565b6040516335313c2160e11b81526001600160a01b038881166004830152821690636a627842906024016020604051808303816000875af11580156127ea573d6000803e3d6000fd5b505050506040513d601f19601f8201168201806040525081019061280e9190613acc565b92508334111561282b5761282b336128268634613b1a565b612dbb565b60408051868152602081018690529081018490526001600160a01b038216907f64b83944e79c3ce8d4c297411de637c3e102d064677aac0c163976ebdcd6f50e9060600160405180910390a2505096509650969350505050565b606081801561296d577f00000000000000000000000000000000000000000000000000000000000000006001600160a01b031663be1bd3316040518163ffffffff1660e01b8152600401602060405180830381865afa1580156128ec573d6000803e3d6000fd5b505050506040513d601f19601f820116820180604052508101906129109190613aaf565b6001600160a01b0316336001600160a01b03161461296d5780421061296d5760405162461bcd60e51b815260206004820152601360248201527232bc3834b932b2103a3930b739b0b1ba34b7b760691b604482015260640161051f565b7f00000000000000000000000000000000000000000000000000000000000000006001600160a01b0316868660008181106129aa576129aa613b6b565b90506020020160208101906129bf9190613b81565b6001600160a01b031614612a155760405162461bcd60e51b815260206004820181905260248201527f467572696f6e537761705632526f757465723a20494e56414c49445f50415448604482015260640161051f565b612a5287878780806020026020016040519081016040528093929190818152602001838360200280828437600092019190915250610d0d92505050565b91503482600081518110612a6857612a68613b6b565b60200260200101511115612ad15760405162461bcd60e51b815260206004820152602a60248201527f467572696f6e537761705632526f757465723a204558434553534956455f494e60448201526914155517d05353d5539560b21b606482015260840161051f565b7f00000000000000000000000000000000000000000000000000000000000000006001600160a01b031663d0e30db083600081518110612b1357612b13613b6b565b60200260200101516040518263ffffffff1660e01b81526004016000604051808303818588803b158015612b4657600080fd5b505af1158015612b5a573d6000803e3d6000fd5b50505050507f00000000000000000000000000000000000000000000000000000000000000006001600160a01b031663a9059cbb7f00000000000000000000000000000000000000000000000000000000000000006001600160a01b031663e6a4390589896000818110612bd057612bd0613b6b565b9050602002016020810190612be59190613b81565b8a8a6001818110612bf857612bf8613b6b565b9050602002016020810190612c0d9190613b81565b6040516001600160e01b031960e085901b1681526001600160a01b03928316600482015291166024820152604401602060405180830381865afa158015612c58573d6000803e3d6000fd5b505050506040513d601f19601f82011682018060405250810190612c7c9190613aaf565b84600081518110612c8f57612c8f613b6b565b60200260200101516040518363ffffffff1660e01b8152600401612cc89291906001600160a01b03929092168252602082015260400190565b6020604051808303816000875af1158015612ce7573d6000803e3d6000fd5b505050506040513d601f19601f82011682018060405250810190612d0b9190613bb5565b612d1757612d1761362d565b612d5682878780806020026020016040519081016040528093929190818152602001838360200280828437600092019190915250899250612e85915050565b81600081518110612d6957612d69613b6b565b6020026020010151341115611a1f57611a1f3383600081518110612d8f57612d8f613b6b565b6020026020010151346128269190613b1a565b612db66001600160a01b0384168383613381565b505050565b6000826001600160a01b03168260405160006040518083038185875af1925050503d8060008114612e08576040519150601f19603f3d011682016040523d82523d6000602084013e612e0d565b606091505b5050905080612db65760405162461bcd60e51b815260206004820152602360248201527f5472616e7366657248656c7065723a204554485f5452414e534645525f46414960448201526213115160ea1b606482015260840161051f565b612e7f6001600160a01b03851684848461315c565b50505050565b60005b60018351612e969190613b1a565b811015612e7f57600080848381518110612eb257612eb2613b6b565b602002602001015185846001612ec89190613b53565b81518110612ed857612ed8613b6b565b6020026020010151915091506000816001600160a01b0316836001600160a01b031610612f055781612f07565b825b9050600087612f17866001613b53565b81518110612f2757612f27613b6b565b60200260200101519050600080836001600160a01b0316866001600160a01b031614612f5557826000612f59565b6000835b91509150600060028a51612f6d9190613b1a565b8810612f795788613040565b6001600160a01b037f00000000000000000000000000000000000000000000000000000000000000001663e6a43905878c612fb58c6002613b53565b81518110612fc557612fc5613b6b565b60200260200101516040518363ffffffff1660e01b8152600401612fff9291906001600160a01b0392831681529116602082015260400190565b602060405180830381865afa15801561301c573d6000803e3d6000fd5b505050506040513d601f19601f820116820180604052508101906130409190613aaf565b60405163e6a4390560e01b81526001600160a01b03898116600483015288811660248301529192507f00000000000000000000000000000000000000000000000000000000000000009091169063e6a4390590604401602060405180830381865afa1580156130b3573d6000803e3d6000fd5b505050506040513d601f19601f820116820180604052508101906130d79190613aaf565b6040516336cd320560e11b815260048101859052602481018490526001600160a01b0383811660448301529190911690636d9a640a90606401600060405180830381600087803b15801561312a57600080fd5b505af115801561313e573d6000803e3d6000fd5b5050505050505050505050808061315490613bfb565b915050612e88565b6040516001600160a01b0380851660248301528316604482015260648101829052612e7f9085906323b872dd60e01b906084015b60408051601f198184030181529190526020810180517bffffffffffffffffffffffffffffffffffffffffffffffffffffffff166001600160e01b0319909316929092179091526133b1565b6000806000806131ec8a8a61212b565b6001600160701b031691506001600160701b031691506000808a6001600160a01b03168c6001600160a01b031610613225578284613228565b83835b9150915081600014801561323a575080155b1561324a57899550889450613372565b60006132578b8484611bcd565b90508981116132bb57878110156132b05760405162461bcd60e51b815260206004820152601560248201527f494e53554646494349454e545f425f414d4f554e540000000000000000000000604482015260640161051f565b8a9650945084613370565b60006132c88b8486611bcd565b90508b81111561331a5760405162461bcd60e51b815260206004820152600b60248201527f554e415641494c41424c45000000000000000000000000000000000000000000604482015260640161051f565b8981101561336a5760405162461bcd60e51b815260206004820152601560248201527f494e53554646494349454e545f415f414d4f554e540000000000000000000000604482015260640161051f565b96508995505b505b50505050965096945050505050565b6040516001600160a01b038316602482015260448101829052612db690849063a9059cbb60e01b90606401613190565b6000613406826040518060400160405280602081526020017f5361666545524332303a206c6f772d6c6576656c2063616c6c206661696c6564815250856001600160a01b03166134969092919063ffffffff16565b805190915015612db657808060200190518101906134249190613bb5565b612db65760405162461bcd60e51b815260206004820152602a60248201527f5361666545524332303a204552433230206f7065726174696f6e20646964206e60448201527f6f74207375636365656400000000000000000000000000000000000000000000606482015260840161051f565b6060611c8f84846000856134ac565b9392505050565b6060824710156135245760405162461bcd60e51b815260206004820152602660248201527f416464726573733a20696e73756666696369656e742062616c616e636520666f60448201527f722063616c6c0000000000000000000000000000000000000000000000000000606482015260840161051f565b6001600160a01b0385163b61357b5760405162461bcd60e51b815260206004820152601d60248201527f416464726573733a2063616c6c20746f206e6f6e2d636f6e7472616374000000604482015260640161051f565b600080866001600160a01b031685876040516135979190613c8a565b60006040518083038185875af1925050503d80600081146135d4576040519150601f19603f3d011682016040523d82523d6000602084013e6135d9565b606091505b50915091506135e98282866135f4565b979650505050505050565b606083156136035750816134a5565b8251156136135782518084602001fd5b8160405162461bcd60e51b815260040161051f9190613ca6565b634e487b7160e01b600052600160045260246000fd5b6001600160a01b038116811461365857600080fd5b50565b803561366681613643565b919050565b60008060008060008060c0878903121561368457600080fd5b863561368f81613643565b955060208701359450604087013593506060870135925060808701356136b481613643565b8092505060a087013590509295509295509295565b6000806000606084860312156136de57600080fd5b8335925060208401356136f081613643565b9150604084013561370081613643565b809150509250925092565b60008083601f84011261371d57600080fd5b50813567ffffffffffffffff81111561373557600080fd5b6020830191508360208260051b850101111561375057600080fd5b9250929050565b60008060008060008060a0878903121561377057600080fd5b8635955060208701359450604087013567ffffffffffffffff81111561379557600080fd5b6137a189828a0161370b565b90955093505060608701356137b581613643565b80925050608087013590509295509295509295565b6020808252825182820181905260009190848201906040850190845b81811015613802578351835292840192918401916001016137e6565b50909695505050505050565b634e487b7160e01b600052604160045260246000fd5b6000806040838503121561383757600080fd5b8235915060208084013567ffffffffffffffff8082111561385757600080fd5b818601915086601f83011261386b57600080fd5b81358181111561387d5761387d61380e565b8060051b604051601f19603f830116810181811085821117156138a2576138a261380e565b6040529182528482019250838101850191898311156138c057600080fd5b938501935b828510156138e5576138d68561365b565b845293850193928501926138c5565b8096505050505050509250929050565b60008060008060006080868803121561390d57600080fd5b85359450602086013567ffffffffffffffff81111561392b57600080fd5b6139378882890161370b565b909550935050604086013561394b81613643565b949793965091946060013592915050565b60008060006060848603121561397157600080fd5b505081359360208301359350604090920135919050565b600080600080600080600060e0888a0312156139a357600080fd5b87356139ae81613643565b965060208801356139be81613643565b955060408801359450606088013593506080880135925060a08801356139e381613643565b8092505060c0880135905092959891949750929550565b60008060408385031215613a0d57600080fd5b8235613a1881613643565b91506020830135613a2881613643565b809150509250929050565b600080600080600080600080610100898b031215613a5057600080fd5b8835613a5b81613643565b97506020890135613a6b81613643565b965060408901359550606089013594506080890135935060a0890135925060c0890135613a9781613643565b8092505060e089013590509295985092959890939650565b600060208284031215613ac157600080fd5b81516134a581613643565b600060208284031215613ade57600080fd5b5051919050565b634e487b7160e01b600052601160045260246000fd5b6000816000190483118215151615613b1557613b15613ae5565b500290565b600082821015613b2c57613b2c613ae5565b500390565b600082613b4e57634e487b7160e01b600052601260045260246000fd5b500490565b60008219821115613b6657613b66613ae5565b500190565b634e487b7160e01b600052603260045260246000fd5b600060208284031215613b9357600080fd5b81356134a581613643565b600081613bad57613bad613ae5565b506000190190565b600060208284031215613bc757600080fd5b815180151581146134a557600080fd5b60008060408385031215613bea57600080fd5b505080516020909101519092909150565b600060018201613c0d57613c0d613ae5565b5060010190565b80516001600160701b038116811461366657600080fd5b60008060408385031215613c3e57600080fd5b613c4783613c14565b9150613c5560208401613c14565b90509250929050565b60005b83811015613c79578181015183820152602001613c61565b83811115612e7f5750506000910152565b60008251613c9c818460208701613c5e565b9190910192915050565b6020815260008251806020840152613cc5816040850160208701613c5e565b601f01601f1916919091016040019291505056fea164736f6c634300080d000a",
  "devdoc": {
    "kind": "dev",
    "methods": {
      "addLiquidity(address,address,uint256,uint256,uint256,uint256,address,uint256)": {
        "params": {
          "_amountADesired": "Amount of tokenA desired",
          "_amountAMin": "Minimum amoutn of tokenA",
          "_amountBDesired": "Amount of tokenB desired",
          "_amountBMin": "Minimum amount of tokenB",
          "_deadline": "Transaction will revert after this deadline",
          "_to": "Address that receive the lp token, normally the user himself",
          "_tokenA": "Address of tokenA",
          "_tokenB": "Address of tokenB"
        },
        "returns": {
          "amountA": "Amount of tokenA to be input",
          "amountB": "Amount of tokenB to be input",
          "liquidity": "LP token to be mint"
        }
      },
      "addLiquidityETH(address,uint256,uint256,uint256,address,uint256)": {
        "params": {
          "_amountETHMin": "Minimum amount of ETH",
          "_amountTokenDesired": "Amount of token desired",
          "_amountTokenMin": "Minimum amount of token",
          "_deadline": "Transaction will revert after this deadline",
          "_to": "Address that receive the lp token, normally the user himself",
          "_token": "Address of the other token"
        },
        "returns": {
          "amountETH": "Amount of ETH to be input",
          "amountToken": "Amount of token to be input",
          "liquidity": "LP token to be mint"
        }
      },
      "getAmountIn(uint256,address,address)": {
        "params": {
          "_amountOut": "Amount of tokens given out",
          "_tokenIn": "Address of the input token",
          "_tokenOut": "Address of the output token"
        },
        "returns": {
          "amountIn": "Amount of token in"
        }
      },
      "getAmountOut(uint256,address,address)": {
        "params": {
          "_amountIn": "Amount of tokens put in",
          "_tokenIn": "Address of the input token",
          "_tokenOut": "Address of the output token"
        },
        "returns": {
          "amountOut": "Amount of token out"
        }
      },
      "getAmountsIn(uint256,address[])": {
        "params": {
          "_amountOut": "Amount of tokens get out",
          "_path": "Path of trading routes"
        },
        "returns": {
          "amounts": "Amount of tokens"
        }
      },
      "getAmountsOut(uint256,address[])": {
        "params": {
          "_amountIn": "Amount of tokens put in",
          "_path": "Path of trading routes"
        },
        "returns": {
          "amounts": "Amount of tokens"
        }
      },
      "getReserves(address,address)": {
        "details": "You need to sort the token order by yourself!      No matter your input order, the return value will always start with lower address      i.e. _tokenA < _tokenB ? (_tokenA, _tokenB) : (_tokenB, _tokenA)",
        "params": {
          "_tokenA": "Address of tokenA",
          "_tokenB": "Address of tokenB"
        },
        "returns": {
          "reserve0": "Reserve of token0,",
          "reserve1": "Reserve of token1"
        }
      },
      "quote(uint256,uint256,uint256)": {
        "details": "Used when add or remove liquidity",
        "params": {
          "_amountA": "Amount of tokenA",
          "_reserveA": "Reserve of tokenA",
          "_reserveB": "Reserve of tokenB"
        },
        "returns": {
          "amountB": "Amount of tokenB"
        }
      },
      "removeLiquidity(address,address,uint256,uint256,uint256,address,uint256)": {
        "params": {
          "_amountAMin": "Minimum amount of tokenA given out",
          "_amountBMin": "Minimum amount of tokenB given out",
          "_deadline": "Deadline of this transaction",
          "_liquidity": "The lp token amount to be removed",
          "_to": "User address",
          "_tokenA": "Address of token A",
          "_tokenB": "Address of token B"
        },
        "returns": {
          "amount0": "Amount of token0 given out",
          "amount1": "Amount of token1 given out, here amount0 & 1 is ordered"
        }
      },
      "removeLiquidityETH(address,uint256,uint256,uint256,address,uint256)": {
        "params": {
          "_amountETHMin": "Minimum amount of ETH given out",
          "_amountTokenMin": "Minimum amount of token given out",
          "_deadline": "Deadline of this transaction",
          "_liquidity": "The lp token amount to be removed",
          "_to": "User address",
          "_token": "Address of the other token"
        },
        "returns": {
          "amountETH": "Amount of ETH given out",
          "amountToken": "Amount of token given out"
        }
      },
      "swapETHForExactTokens(uint256,address[],address,uint256)": {
        "params": {
          "_amountOut": "Amount of output token",
          "_deadline": "Deadline of this transaction",
          "_path": "Address collection of trading path",
          "_to": "Receiver of the output token, generally user address"
        },
        "returns": {
          "amounts": "Amount of tokens"
        }
      },
      "swapExactETHForTokens(uint256,address[],address,uint256)": {
        "params": {
          "_amountOutMin": "Minimum amount of output token",
          "_deadline": "Deadline of this transaction",
          "_path": "Address collection of trading path",
          "_to": "Receiver of the output token, generally user address"
        },
        "returns": {
          "amounts": "Amount of tokens"
        }
      },
      "swapExactTokensForETH(uint256,uint256,address[],address,uint256)": {
        "params": {
          "_amountIn": "Amount of input token",
          "_amountOutMin": "Minimum amount of output token",
          "_deadline": "Deadline of this transaction",
          "_path": "Address collection of trading path",
          "_to": "Receiver of the output token, generally user address"
        },
        "returns": {
          "amounts": "Amount of tokens"
        }
      },
      "swapExactTokensForTokens(uint256,uint256,address[],address,uint256)": {
        "params": {
          "_amountIn": "Amount of input token",
          "_amountOutMin": "Minimum amount of token given out",
          "_deadline": "Deadline of this transaction",
          "_path": "Address collection of trading path",
          "_to": "Receiver of the output token, generally user address"
        },
        "returns": {
          "amounts": "Amount of tokens"
        }
      },
      "swapTokensForExactETH(uint256,uint256,address[],address,uint256)": {
        "params": {
          "_amountInMax": "Maxmium amount of token in",
          "_amountOut": "Amount of output token",
          "_deadline": "Deadline of this transaction",
          "_path": "Address collection of trading path",
          "_to": "Receiver of the output token, generally user address"
        },
        "returns": {
          "amounts": "Amount of tokens"
        }
      },
      "swapTokensForExactTokens(uint256,uint256,address[],address,uint256)": {
        "params": {
          "_amountInMax": "Maxmium amount of token in",
          "_amountOut": "Amount of output token",
          "_deadline": "Deadline of this transaction",
          "_path": "Address collection of trading path",
          "_to": "Receiver of the output token, generally user address"
        },
        "returns": {
          "amounts": "Amount of tokens"
        }
      }
    },
    "version": 1
  },
  "userdoc": {
    "kind": "user",
    "methods": {
      "addLiquidity(address,address,uint256,uint256,uint256,uint256,address,uint256)": {
        "notice": "Add liquidity function"
      },
      "addLiquidityETH(address,uint256,uint256,uint256,address,uint256)": {
        "notice": "Add liquidity for pair where one token is ETH"
      },
      "getAmountIn(uint256,address,address)": {
        "notice": "Used when swap tokens for exact tokens (out is fixed)"
      },
      "getAmountOut(uint256,address,address)": {
        "notice": "Used when swap exact tokens for tokens (in is fixed)"
      },
      "getAmountsIn(uint256,address[])": {
        "notice": "Used when swap exact tokens for tokens (out is fixed), multiple swap"
      },
      "getAmountsOut(uint256,address[])": {
        "notice": "Used when swap exact tokens for tokens (in is fixed), multiple swap"
      },
      "getReserves(address,address)": {
        "notice": "Fetch the reserves for a trading pair"
      },
      "quote(uint256,uint256,uint256)": {
        "notice": "Given some amount of an asset and pair reserves         returns an equivalent amount of the other asset"
      },
      "removeLiquidity(address,address,uint256,uint256,uint256,address,uint256)": {
        "notice": "Remove liquidity from the pool"
      },
      "removeLiquidityETH(address,uint256,uint256,uint256,address,uint256)": {
        "notice": "Remove liquidity from the pool, one token is ETH"
      },
      "swapETHForExactTokens(uint256,address[],address,uint256)": {
        "notice": "Swap token for exact ETH, output is fixed"
      },
      "swapExactETHForTokens(uint256,address[],address,uint256)": {
        "notice": "Swap exact ETH for another token, input is fixed"
      },
      "swapExactTokensForETH(uint256,uint256,address[],address,uint256)": {
        "notice": "Swap exact tokens for ETH, input is fixed"
      },
      "swapExactTokensForTokens(uint256,uint256,address[],address,uint256)": {
        "notice": "Swap exact tokens for another token, input is fixed"
      },
      "swapTokensForExactETH(uint256,uint256,address[],address,uint256)": {
        "notice": "Swap token for exact ETH, output is fixed"
      },
      "swapTokensForExactTokens(uint256,uint256,address[],address,uint256)": {
        "notice": "Swap token for exact token, output is fixed"
      }
    },
    "version": 1
  },
  "storageLayout": {
    "storage": [],
    "types": null
  }
}