{
  "address": "0x783b9133135a16B5E7789876395FC09D86d36515",
  "abi": [
    {
      "inputs": [],
      "name": "FIS__NotEnoughVeFUR",
      "type": "error"
    },
    {
      "inputs": [],
      "name": "FIS__PoolNotAvailable",
      "type": "error"
    },
    {
      "inputs": [],
      "name": "FIS__WrongSpeed",
      "type": "error"
    },
    {
      "inputs": [],
      "name": "FIS__ZeroAmount",
      "type": "error"
    },
    {
      "anonymous": false,
      "inputs": [
        {
          "indexed": false,
          "internalType": "address",
          "name": "user",
          "type": "address"
        },
        {
          "indexed": false,
          "internalType": "uint256",
          "name": "poolId",
          "type": "uint256"
        },
        {
          "indexed": false,
          "internalType": "uint256",
          "name": "amount",
          "type": "uint256"
        }
      ],
      "name": "Deposit",
      "type": "event"
    },
    {
      "anonymous": false,
      "inputs": [
        {
          "indexed": false,
          "internalType": "address",
          "name": "user",
          "type": "address"
        },
        {
          "indexed": false,
          "internalType": "uint256",
          "name": "poolId",
          "type": "uint256"
        },
        {
          "indexed": false,
          "internalType": "uint256",
          "name": "amount",
          "type": "uint256"
        }
      ],
      "name": "Harvest",
      "type": "event"
    },
    {
      "anonymous": false,
      "inputs": [
        {
          "indexed": false,
          "internalType": "uint8",
          "name": "version",
          "type": "uint8"
        }
      ],
      "name": "Initialized",
      "type": "event"
    },
    {
      "anonymous": false,
      "inputs": [
        {
          "indexed": false,
          "internalType": "uint256",
          "name": "poolId",
          "type": "uint256"
        },
        {
          "indexed": false,
          "internalType": "address",
          "name": "rewardToken",
          "type": "address"
        }
      ],
      "name": "NewRewardPoolStart",
      "type": "event"
    },
    {
      "anonymous": false,
      "inputs": [
        {
          "indexed": true,
          "internalType": "address",
          "name": "previousOwner",
          "type": "address"
        },
        {
          "indexed": true,
          "internalType": "address",
          "name": "newOwner",
          "type": "address"
        }
      ],
      "name": "OwnershipTransferred",
      "type": "event"
    },
    {
      "anonymous": false,
      "inputs": [
        {
          "indexed": false,
          "internalType": "address",
          "name": "account",
          "type": "address"
        }
      ],
      "name": "Paused",
      "type": "event"
    },
    {
      "anonymous": false,
      "inputs": [
        {
          "indexed": false,
          "internalType": "uint256",
          "name": "poolId",
          "type": "uint256"
        },
        {
          "indexed": false,
          "internalType": "uint256",
          "name": "accRewardPerSecond",
          "type": "uint256"
        }
      ],
      "name": "PoolUpdated",
      "type": "event"
    },
    {
      "anonymous": false,
      "inputs": [
        {
          "indexed": false,
          "internalType": "uint256",
          "name": "poolId",
          "type": "uint256"
        },
        {
          "indexed": false,
          "internalType": "uint256",
          "name": "rewardPerSecond",
          "type": "uint256"
        }
      ],
      "name": "RewardSpeedSet",
      "type": "event"
    },
    {
      "anonymous": false,
      "inputs": [
        {
          "indexed": false,
          "internalType": "uint256",
          "name": "oldRoundTime",
          "type": "uint256"
        },
        {
          "indexed": false,
          "internalType": "uint256",
          "name": "newRoundTime",
          "type": "uint256"
        }
      ],
      "name": "RoundTimeChanged",
      "type": "event"
    },
    {
      "anonymous": false,
      "inputs": [
        {
          "indexed": false,
          "internalType": "address",
          "name": "account",
          "type": "address"
        }
      ],
      "name": "Unpaused",
      "type": "event"
    },
    {
      "anonymous": false,
      "inputs": [
        {
          "indexed": false,
          "internalType": "address",
          "name": "user",
          "type": "address"
        },
        {
          "indexed": false,
          "internalType": "uint256",
          "name": "poolId",
          "type": "uint256"
        },
        {
          "indexed": false,
          "internalType": "uint256",
          "name": "amount",
          "type": "uint256"
        }
      ],
      "name": "Withdraw",
      "type": "event"
    },
    {
      "inputs": [],
      "name": "SCALE",
      "outputs": [
        {
          "internalType": "uint256",
          "name": "",
          "type": "uint256"
        }
      ],
      "stateMutability": "view",
      "type": "function"
    },
    {
      "inputs": [
        {
          "internalType": "uint256",
          "name": "_poolId",
          "type": "uint256"
        },
        {
          "internalType": "uint256",
          "name": "_amount",
          "type": "uint256"
        }
      ],
      "name": "deposit",
      "outputs": [],
      "stateMutability": "nonpayable",
      "type": "function"
    },
    {
      "inputs": [
        {
          "internalType": "uint256",
          "name": "_poolId",
          "type": "uint256"
        },
        {
          "internalType": "address",
          "name": "_to",
          "type": "address"
        }
      ],
      "name": "harvest",
      "outputs": [],
      "stateMutability": "nonpayable",
      "type": "function"
    },
    {
      "inputs": [
        {
          "internalType": "address",
          "name": "_veFUR",
          "type": "address"
        }
      ],
      "name": "initialize",
      "outputs": [],
      "stateMutability": "nonpayable",
      "type": "function"
    },
    {
      "inputs": [],
      "name": "nextPool",
      "outputs": [
        {
          "internalType": "uint256",
          "name": "",
          "type": "uint256"
        }
      ],
      "stateMutability": "view",
      "type": "function"
    },
    {
      "inputs": [],
      "name": "owner",
      "outputs": [
        {
          "internalType": "address",
          "name": "",
          "type": "address"
        }
      ],
      "stateMutability": "view",
      "type": "function"
    },
    {
      "inputs": [],
      "name": "paused",
      "outputs": [
        {
          "internalType": "bool",
          "name": "",
          "type": "bool"
        }
      ],
      "stateMutability": "view",
      "type": "function"
    },
    {
      "inputs": [
        {
          "internalType": "uint256",
          "name": "_poolId",
          "type": "uint256"
        },
        {
          "internalType": "address",
          "name": "_user",
          "type": "address"
        }
      ],
      "name": "pendingReward",
      "outputs": [
        {
          "internalType": "uint256",
          "name": "",
          "type": "uint256"
        }
      ],
      "stateMutability": "view",
      "type": "function"
    },
    {
      "inputs": [
        {
          "internalType": "uint256",
          "name": "",
          "type": "uint256"
        }
      ],
      "name": "pools",
      "outputs": [
        {
          "internalType": "bool",
          "name": "available",
          "type": "bool"
        },
        {
          "internalType": "address",
          "name": "rewardToken",
          "type": "address"
        },
        {
          "internalType": "uint256",
          "name": "totalAmount",
          "type": "uint256"
        },
        {
          "internalType": "uint256",
          "name": "rewardPerSecond",
          "type": "uint256"
        },
        {
          "internalType": "uint256",
          "name": "accRewardPerShare",
          "type": "uint256"
        },
        {
          "internalType": "uint256",
          "name": "lastRewardTimestamp",
          "type": "uint256"
        }
      ],
      "stateMutability": "view",
      "type": "function"
    },
    {
      "inputs": [],
      "name": "renounceOwnership",
      "outputs": [],
      "stateMutability": "nonpayable",
      "type": "function"
    },
    {
      "inputs": [],
      "name": "roundTime",
      "outputs": [
        {
          "internalType": "uint256",
          "name": "",
          "type": "uint256"
        }
      ],
      "stateMutability": "view",
      "type": "function"
    },
    {
      "inputs": [
        {
          "internalType": "uint256",
          "name": "_poolId",
          "type": "uint256"
        },
        {
          "internalType": "uint256",
          "name": "_rewardPerSecond",
          "type": "uint256"
        }
      ],
      "name": "setRewardSpeed",
      "outputs": [],
      "stateMutability": "nonpayable",
      "type": "function"
    },
    {
      "inputs": [
        {
          "internalType": "uint256",
          "name": "_roundTime",
          "type": "uint256"
        }
      ],
      "name": "setRoundTime",
      "outputs": [],
      "stateMutability": "nonpayable",
      "type": "function"
    },
    {
      "inputs": [
        {
          "internalType": "address",
          "name": "_rewardToken",
          "type": "address"
        }
      ],
      "name": "startPool",
      "outputs": [],
      "stateMutability": "nonpayable",
      "type": "function"
    },
    {
      "inputs": [
        {
          "internalType": "address",
          "name": "newOwner",
          "type": "address"
        }
      ],
      "name": "transferOwnership",
      "outputs": [],
      "stateMutability": "nonpayable",
      "type": "function"
    },
    {
      "inputs": [
        {
          "internalType": "uint256",
          "name": "_poolId",
          "type": "uint256"
        }
      ],
      "name": "updatePool",
      "outputs": [],
      "stateMutability": "nonpayable",
      "type": "function"
    },
    {
      "inputs": [
        {
          "internalType": "uint256",
          "name": "",
          "type": "uint256"
        },
        {
          "internalType": "address",
          "name": "",
          "type": "address"
        }
      ],
      "name": "users",
      "outputs": [
        {
          "internalType": "uint256",
          "name": "totalAmount",
          "type": "uint256"
        },
        {
          "internalType": "uint256",
          "name": "rewardDebt",
          "type": "uint256"
        }
      ],
      "stateMutability": "view",
      "type": "function"
    },
    {
      "inputs": [],
      "name": "veFUR",
      "outputs": [
        {
          "internalType": "contract IVeFUR",
          "name": "",
          "type": "address"
        }
      ],
      "stateMutability": "view",
      "type": "function"
    },
    {
      "inputs": [
        {
          "internalType": "uint256",
          "name": "_poolId",
          "type": "uint256"
        },
        {
          "internalType": "uint256",
          "name": "_amount",
          "type": "uint256"
        }
      ],
      "name": "withdraw",
      "outputs": [],
      "stateMutability": "nonpayable",
      "type": "function"
    },
    {
      "inputs": [
        {
          "internalType": "uint256",
          "name": "_poolId",
          "type": "uint256"
        }
      ],
      "name": "withdrawAll",
      "outputs": [],
      "stateMutability": "nonpayable",
      "type": "function"
    }
  ],
  "transactionHash": "0xe8a6c38ccc9505e955c1d59ad4931c42346140bf7b46ca4fe8e1f5b887dab6b1",
  "args": [],
  "numDeployments": 1,
  "solcInputHash": "f71c7515d120a5406563342b21637eec",
  "bytecode": "0x608060405234801561001057600080fd5b50611d7a806100206000396000f3fe608060405234801561001057600080fd5b506004361061016c5760003560e01c806398969e82116100cd578063e2bbb15811610081578063ee5f8c8f11610066578063ee5f8c8f14610372578063f2fde38b1461037b578063fa65cb041461038e57600080fd5b8063e2bbb1581461034b578063eced55261461035e57600080fd5b8063b9d02df4116100b2578063b9d02df4146102de578063c4d66de814610325578063d03a7d251461033857600080fd5b806398969e8214610248578063ac4afa381461025b57600080fd5b80635c975abb11610124578063715018a611610109578063715018a61461021c5780638da5cb5b14610224578063958e2d311461023557600080fd5b80635c975abb146101f35780635e3df1411461020957600080fd5b806338f2ff921161015557806338f2ff92146101a2578063441a3e70146101cd57806351eb05a6146101e057600080fd5b806318fccc7614610171578063243d658514610186575b600080fd5b61018461017f366004611b92565b6103a1565b005b61018f60cd5481565b6040519081526020015b60405180910390f35b60ca546101b5906001600160a01b031681565b6040516001600160a01b039091168152602001610199565b6101846101db366004611bbe565b61059b565b6101846101ee366004611be0565b610805565b60655460ff166040519015158152602001610199565b610184610217366004611bf9565b61097b565b610184610a90565b6033546001600160a01b03166101b5565b610184610243366004611be0565b610af6565b61018f610256366004611b92565b610b1e565b6102a7610269366004611be0565b60cb602052600090815260409020805460018201546002830154600384015460049094015460ff8416946101009094046001600160a01b0316939086565b6040805196151587526001600160a01b039095166020870152938501929092526060840152608083015260a082015260c001610199565b6103106102ec366004611b92565b60cc6020908152600092835260408084209091529082529020805460019091015482565b60408051928352602083019190915201610199565b610184610333366004611bf9565b610d25565b610184610346366004611bbe565b610dd4565b610184610359366004611bbe565b610f1b565b61018f6c0c9f2c9cd04674edea4000000081565b61018f60c95481565b610184610389366004611bf9565b611236565b61018461039c366004611be0565b611315565b6002609754036103f85760405162461bcd60e51b815260206004820152601f60248201527f5265656e7472616e637947756172643a207265656e7472616e742063616c6c0060448201526064015b60405180910390fd5b600260975560655460ff16156104505760405162461bcd60e51b815260206004820152601060248201527f5061757361626c653a207061757365640000000000000000000000000000000060448201526064016103ef565b61045982610805565b600082815260cb60209081526040808320815160c081018352815460ff81161515825261010090046001600160a01b031681850152600180830154828501526002830154606083015260038301546080830190815260049093015460a083015287865260cc855283862033875290945291842092830154905183549294926c0c9f2c9cd04674edea40000000916104ef91611c2a565b6104f99190611c49565b6105039190611c6b565b90506c0c9f2c9cd04674edea40000000836080015183600001546105279190611c2a565b6105319190611c49565b600183015560208301516000906105499086846113b0565b60408051338152602081018990529081018290529091507f71bab65ced2e5750775a0613be067df48ef06cf92a496ebf7663ae0660924954906060015b60405180910390a15050600160975550505050565b6002609754036105ed5760405162461bcd60e51b815260206004820152601f60248201527f5265656e7472616e637947756172643a207265656e7472616e742063616c6c0060448201526064016103ef565b6002609755600081900361061457604051631bcf246f60e31b815260040160405180910390fd5b600082815260cb6020908152604080832060cc8352818420338552909252909120805483111561065757604051635b7b1f0160e11b815260040160405180910390fd5b61066084610805565b600081600101546c0c9f2c9cd04674edea40000000836000015485600301546106899190611c2a565b6106939190611c49565b61069d9190611c6b565b83549091506000906106be9061010090046001600160a01b031633846113b0565b60408051338152602081018990529081018290529091507f71bab65ced2e5750775a0613be067df48ef06cf92a496ebf7663ae06609249549060600160405180910390a1848460010160008282546107169190611c6b565b909155505082548590849060009061072f908490611c6b565b9091555050600384015483546c0c9f2c9cd04674edea400000009161075391611c2a565b61075d9190611c49565b600184015560ca5460405163c95ad54760e01b8152336004820152602481018790526001600160a01b039091169063c95ad54790604401600060405180830381600087803b1580156107ae57600080fd5b505af11580156107c2573d6000803e3d6000fd5b505060408051338152602081018a90529081018890527ff279e6a1f5e320cca91135676d9cb6e44ca8a08c0b88342bcdb1144f6511b56892506060019050610586565b600081815260cb6020526040902060048101544211610822575050565b60018101546002820154811580610837575080155b156108485750504260049091015550565b600083600401544261085a9190611c6b565b905060006108688383611c2a565b85546040516370a0823160e01b81523060048201529192506000916101009091046001600160a01b0316906370a0823190602401602060405180830381865afa1580156108b9573d6000803e3d6000fd5b505050506040513d601f19601f820116820180604052508101906108dd9190611c82565b905060008183116108ee57826108f0565b815b90508561090a6c0c9f2c9cd04674edea4000000083611c2a565b6109149190611c49565b8760030160008282546109279190611c9b565b90915550504260048801556003870154604080518a815260208101929092527f7fa9647ec1cc14e3822b46d05a2b9d4e019bde8875c0088c46b6503d71bf1722910160405180910390a15050505050505050565b6033546001600160a01b031633146109d55760405162461bcd60e51b815260206004820181905260248201527f4f776e61626c653a2063616c6c6572206973206e6f7420746865206f776e657260448201526064016103ef565b60cd805460009160cb918391826109eb83611cb3565b9091555081526020810191909152604001600020805460017fffffffffffffffffffffff0000000000000000000000000000000000000000009091166101006001600160a01b03861602178117825560cd549192507fc152e0e959f429700442d55214616143637a2b01940082fcaaba253ab85c17b991610a6c9190611c6b565b604080519182526001600160a01b0385166020830152015b60405180910390a15050565b6033546001600160a01b03163314610aea5760405162461bcd60e51b815260206004820181905260248201527f4f776e61626c653a2063616c6c6572206973206e6f7420746865206f776e657260448201526064016103ef565b610af46000611462565b565b600081815260cc60209081526040808320338452909152902054610b1b90829061059b565b50565b600082815260cb60209081526040808320815160c081018352815460ff81161515825261010090046001600160a01b03169381019390935260018101549183019190915260028101546060830152600381015460808301526004015460a082018190521580610b9057508060a0015142105b15610b9f576000915050610d1f565b60808101516040820151600003610bbb57600092505050610d1f565b600085815260cc602090815260408083206001600160a01b03881684528252808320815180830190925280548252600101549181019190915260a0840151909190610c069042611c6b565b90506000846060015182610c1a9190611c2a565b60208601516040516370a0823160e01b81523060048201529192506000916001600160a01b03909116906370a0823190602401602060405180830381865afa158015610c6a573d6000803e3d6000fd5b505050506040513d601f19601f82011682018060405250810190610c8e9190611c82565b90506000818311610c9f5782610ca1565b815b6040880151909150610cc06c0c9f2c9cd04674edea4000000083611c2a565b610cca9190611c49565b610cd49087611c9b565b9550600085602001516c0c9f2c9cd04674edea40000000888860000151610cfb9190611c2a565b610d059190611c49565b610d0f9190611c6b565b9850610d1f975050505050505050565b92915050565b6000610d3160016114c1565b90508015610d49576000805461ff0019166101001790555b610d516115dc565b610d5961164f565b610d616116c2565b60ca805473ffffffffffffffffffffffffffffffffffffffff19166001600160a01b038416179055600160cd558015610dd0576000805461ff0019169055604051600181527f7f26b83ff96e1f2b6a682f133852f6798a09c465da95921460cefb384740249890602001610a84565b5050565b610ddd82610805565b600082815260cb6020908152604091829020825160c081018452815460ff81161515825261010090046001600160a01b0316928101839052600182015481850152600282015460608201526003820154608082015260049182015460a082015292516370a0823160e01b815230918101919091526370a0823190602401602060405180830381865afa158015610e77573d6000803e3d6000fd5b505050506040513d601f19601f82011682018060405250810190610e9b9190611c82565b8260c954610ea99190611c2a565b1115610ec8576040516303ee73d160e11b815260040160405180910390fd5b600083815260cb602090815260409182902060020184905581518581529081018490527f01daaf9017881672e5509b604c12ed0f4eab658d04c732febc698b8ed42397e3910160405180910390a1505050565b600260975403610f6d5760405162461bcd60e51b815260206004820152601f60248201527f5265656e7472616e637947756172643a207265656e7472616e742063616c6c0060448201526064016103ef565b6002609755600082815260cb602052604090205460ff16610fa1576040516395cf42f160e01b815260040160405180910390fd5b80600003610fc257604051631bcf246f60e31b815260040160405180910390fd5b60ca546040516370a0823160e01b815233600482015282916001600160a01b0316906370a0823190602401602060405180830381865afa15801561100a573d6000803e3d6000fd5b505050506040513d601f19601f8201168201806040525081019061102e9190611c82565b101561104d57604051635b7b1f0160e11b815260040160405180910390fd5b61105682610805565b60ca546040516376da9bbb60e01b8152336004820152602481018390526001600160a01b03909116906376da9bbb90604401600060405180830381600087803b1580156110a257600080fd5b505af11580156110b6573d6000803e3d6000fd5b505050600083815260cb6020908152604080832060cc83528184203385529092529091208054919250901561118a57600081600101546c0c9f2c9cd04674edea400000008360000154856003015461110e9190611c2a565b6111189190611c49565b6111229190611c6b565b83549091506000906111439061010090046001600160a01b031633846113b0565b60408051338152602081018990529081018290529091507f71bab65ced2e5750775a0613be067df48ef06cf92a496ebf7663ae06609249549060600160405180910390a150505b8282600101600082825461119e9190611c9b565b90915550508054839082906000906111b7908490611c9b565b9091555050805460038301546c0c9f2c9cd04674edea40000000916111db91611c2a565b6111e59190611c49565b600182015560408051338152602081018690529081018490527f90890809c654f11d6e72a28fa60149770a0d11ec6c92319d6ceb2bb0a4ea1a159060600160405180910390a1505060016097555050565b6033546001600160a01b031633146112905760405162461bcd60e51b815260206004820181905260248201527f4f776e61626c653a2063616c6c6572206973206e6f7420746865206f776e657260448201526064016103ef565b6001600160a01b03811661130c5760405162461bcd60e51b815260206004820152602660248201527f4f776e61626c653a206e6577206f776e657220697320746865207a65726f206160448201527f646472657373000000000000000000000000000000000000000000000000000060648201526084016103ef565b610b1b81611462565b6033546001600160a01b0316331461136f5760405162461bcd60e51b815260206004820181905260248201527f4f776e61626c653a2063616c6c6572206973206e6f7420746865206f776e657260448201526064016103ef565b60c95460408051918252602082018390527f0591d85ff40c6aa3ea8d23e0b0e8224ffef96db2722859b2752cfed2e8ae004d910160405180910390a160c955565b6040516370a0823160e01b815230600482015260009081906001600160a01b038616906370a0823190602401602060405180830381865afa1580156113f9573d6000803e3d6000fd5b505050506040513d601f19601f8201168201806040525081019061141d9190611c82565b9050808311156114425761143b6001600160a01b0386168583611735565b905061145b565b6114566001600160a01b0386168585611735565b829150505b9392505050565b603380546001600160a01b0383811673ffffffffffffffffffffffffffffffffffffffff19831681179093556040519116919082907f8be0079c531659141344cd1fd0a4f28419497f9722a3daafe3b4186f6b6457e090600090a35050565b60008054610100900460ff161561154f578160ff1660011480156114e45750303b155b6115475760405162461bcd60e51b815260206004820152602e60248201527f496e697469616c697a61626c653a20636f6e747261637420697320616c72656160448201526d191e481a5b9a5d1a585b1a5e995960921b60648201526084016103ef565b506000919050565b60005460ff8084169116106115bd5760405162461bcd60e51b815260206004820152602e60248201527f496e697469616c697a61626c653a20636f6e747261637420697320616c72656160448201526d191e481a5b9a5d1a585b1a5e995960921b60648201526084016103ef565b506000805460ff191660ff92909216919091179055600190565b919050565b600054610100900460ff166116475760405162461bcd60e51b815260206004820152602b60248201527f496e697469616c697a61626c653a20636f6e7472616374206973206e6f74206960448201526a6e697469616c697a696e6760a81b60648201526084016103ef565b610af46117a1565b600054610100900460ff166116ba5760405162461bcd60e51b815260206004820152602b60248201527f496e697469616c697a61626c653a20636f6e7472616374206973206e6f74206960448201526a6e697469616c697a696e6760a81b60648201526084016103ef565b610af4611815565b600054610100900460ff1661172d5760405162461bcd60e51b815260206004820152602b60248201527f496e697469616c697a61626c653a20636f6e7472616374206973206e6f74206960448201526a6e697469616c697a696e6760a81b60648201526084016103ef565b610af461188c565b604080516001600160a01b038416602482015260448082018490528251808303909101815260649091019091526020810180517bffffffffffffffffffffffffffffffffffffffffffffffffffffffff1663a9059cbb60e01b17905261179c9084906118fe565b505050565b600054610100900460ff1661180c5760405162461bcd60e51b815260206004820152602b60248201527f496e697469616c697a61626c653a20636f6e7472616374206973206e6f74206960448201526a6e697469616c697a696e6760a81b60648201526084016103ef565b610af433611462565b600054610100900460ff166118805760405162461bcd60e51b815260206004820152602b60248201527f496e697469616c697a61626c653a20636f6e7472616374206973206e6f74206960448201526a6e697469616c697a696e6760a81b60648201526084016103ef565b6065805460ff19169055565b600054610100900460ff166118f75760405162461bcd60e51b815260206004820152602b60248201527f496e697469616c697a61626c653a20636f6e7472616374206973206e6f74206960448201526a6e697469616c697a696e6760a81b60648201526084016103ef565b6001609755565b6000611953826040518060400160405280602081526020017f5361666545524332303a206c6f772d6c6576656c2063616c6c206661696c6564815250856001600160a01b03166119e39092919063ffffffff16565b80519091501561179c57808060200190518101906119719190611ccc565b61179c5760405162461bcd60e51b815260206004820152602a60248201527f5361666545524332303a204552433230206f7065726174696f6e20646964206e60448201527f6f7420737563636565640000000000000000000000000000000000000000000060648201526084016103ef565b60606119f284846000856119fa565b949350505050565b606082471015611a725760405162461bcd60e51b815260206004820152602660248201527f416464726573733a20696e73756666696369656e742062616c616e636520666f60448201527f722063616c6c000000000000000000000000000000000000000000000000000060648201526084016103ef565b6001600160a01b0385163b611ac95760405162461bcd60e51b815260206004820152601d60248201527f416464726573733a2063616c6c20746f206e6f6e2d636f6e747261637400000060448201526064016103ef565b600080866001600160a01b03168587604051611ae59190611d1e565b60006040518083038185875af1925050503d8060008114611b22576040519150601f19603f3d011682016040523d82523d6000602084013e611b27565b606091505b5091509150611b37828286611b42565b979650505050505050565b60608315611b5157508161145b565b825115611b615782518084602001fd5b8160405162461bcd60e51b81526004016103ef9190611d3a565b80356001600160a01b03811681146115d757600080fd5b60008060408385031215611ba557600080fd5b82359150611bb560208401611b7b565b90509250929050565b60008060408385031215611bd157600080fd5b50508035926020909101359150565b600060208284031215611bf257600080fd5b5035919050565b600060208284031215611c0b57600080fd5b61145b82611b7b565b634e487b7160e01b600052601160045260246000fd5b6000816000190483118215151615611c4457611c44611c14565b500290565b600082611c6657634e487b7160e01b600052601260045260246000fd5b500490565b600082821015611c7d57611c7d611c14565b500390565b600060208284031215611c9457600080fd5b5051919050565b60008219821115611cae57611cae611c14565b500190565b600060018201611cc557611cc5611c14565b5060010190565b600060208284031215611cde57600080fd5b8151801515811461145b57600080fd5b60005b83811015611d09578181015183820152602001611cf1565b83811115611d18576000848401525b50505050565b60008251611d30818460208701611cee565b9190910192915050565b6020815260008251806020840152611d59816040850160208701611cee565b601f01601f1916919091016040019291505056fea164736f6c634300080d000a",
  "devdoc": {
    "kind": "dev",
    "methods": {
      "deposit(uint256,uint256)": {
        "params": {
          "_amount": "Amount of tokens to deposit",
          "_poolId": "Pool Id"
        }
      },
      "harvest(uint256,address)": {
        "params": {
          "_poolId": "Pool Id",
          "_to": "Reward receiver address"
        }
      },
      "owner()": {
        "details": "Returns the address of the current owner."
      },
      "paused()": {
        "details": "Returns true if the contract is paused, and false otherwise."
      },
      "pendingReward(uint256,address)": {
        "params": {
          "_poolId": "Pool Id",
          "_user": "User address"
        },
        "returns": {
          "_0": "pendingReward Amount of pending reward"
        }
      },
      "renounceOwnership()": {
        "details": "Leaves the contract without owner. It will not be possible to call `onlyOwner` functions anymore. Can only be called by the current owner. NOTE: Renouncing ownership will leave the contract without an owner, thereby removing any functionality that is only available to the owner."
      },
      "setRewardSpeed(uint256,uint256)": {
        "params": {
          "_poolId": "Pool id",
          "_rewardPerSecond": "Reward speed"
        }
      },
      "setRoundTime(uint256)": {
        "details": "Round time is only used for checking reward speed",
        "params": {
          "_roundTime": "Round time in seconds"
        }
      },
      "startPool(address)": {
        "details": "Every pool would have its own reward token",
        "params": {
          "_rewardToken": "Reward token address"
        }
      },
      "transferOwnership(address)": {
        "details": "Transfers ownership of the contract to a new account (`newOwner`). Can only be called by the current owner."
      },
      "updatePool(uint256)": {
        "params": {
          "_poolId": "Pool id"
        }
      },
      "withdraw(uint256,uint256)": {
        "params": {
          "_amount": "Amount to withdraw",
          "_poolId": "Pool Id"
        }
      },
      "withdrawAll(uint256)": {
        "params": {
          "_poolId": "Pool Id"
        }
      }
    },
    "version": 1
  },
  "userdoc": {
    "kind": "user",
    "methods": {
      "deposit(uint256,uint256)": {
        "notice": "Deposit"
      },
      "harvest(uint256,address)": {
        "notice": "Harvest income reward"
      },
      "pendingReward(uint256,address)": {
        "notice": "Pending reward"
      },
      "setRewardSpeed(uint256,uint256)": {
        "notice": "Set reward speed for a pool"
      },
      "setRoundTime(uint256)": {
        "notice": "Set round time"
      },
      "startPool(address)": {
        "notice": "Start a new income sharing pool"
      },
      "updatePool(uint256)": {
        "notice": "Update pool"
      },
      "withdraw(uint256,uint256)": {
        "notice": "Withdraw the reward from the pool"
      },
      "withdrawAll(uint256)": {
        "notice": "Withdraw all veFUR"
      }
    },
    "version": 1
  },
  "storageLayout": {
    "storage": [
      {
        "astId": 130,
        "contract": "contracts/income-sharing/IncomeSharingVault.sol:IncomeSharingVault",
        "label": "_initialized",
        "offset": 0,
        "slot": "0",
        "type": "t_uint8"
      },
      {
        "astId": 133,
        "contract": "contracts/income-sharing/IncomeSharingVault.sol:IncomeSharingVault",
        "label": "_initializing",
        "offset": 1,
        "slot": "0",
        "type": "t_bool"
      },
      {
        "astId": 719,
        "contract": "contracts/income-sharing/IncomeSharingVault.sol:IncomeSharingVault",
        "label": "__gap",
        "offset": 0,
        "slot": "1",
        "type": "t_array(t_uint256)50_storage"
      },
      {
        "astId": 10,
        "contract": "contracts/income-sharing/IncomeSharingVault.sol:IncomeSharingVault",
        "label": "_owner",
        "offset": 0,
        "slot": "51",
        "type": "t_address"
      },
      {
        "astId": 122,
        "contract": "contracts/income-sharing/IncomeSharingVault.sol:IncomeSharingVault",
        "label": "__gap",
        "offset": 0,
        "slot": "52",
        "type": "t_array(t_uint256)49_storage"
      },
      {
        "astId": 286,
        "contract": "contracts/income-sharing/IncomeSharingVault.sol:IncomeSharingVault",
        "label": "_paused",
        "offset": 0,
        "slot": "101",
        "type": "t_bool"
      },
      {
        "astId": 375,
        "contract": "contracts/income-sharing/IncomeSharingVault.sol:IncomeSharingVault",
        "label": "__gap",
        "offset": 0,
        "slot": "102",
        "type": "t_array(t_uint256)49_storage"
      },
      {
        "astId": 390,
        "contract": "contracts/income-sharing/IncomeSharingVault.sol:IncomeSharingVault",
        "label": "_status",
        "offset": 0,
        "slot": "151",
        "type": "t_uint256"
      },
      {
        "astId": 434,
        "contract": "contracts/income-sharing/IncomeSharingVault.sol:IncomeSharingVault",
        "label": "__gap",
        "offset": 0,
        "slot": "152",
        "type": "t_array(t_uint256)49_storage"
      },
      {
        "astId": 11205,
        "contract": "contracts/income-sharing/IncomeSharingVault.sol:IncomeSharingVault",
        "label": "roundTime",
        "offset": 0,
        "slot": "201",
        "type": "t_uint256"
      },
      {
        "astId": 11208,
        "contract": "contracts/income-sharing/IncomeSharingVault.sol:IncomeSharingVault",
        "label": "veFUR",
        "offset": 0,
        "slot": "202",
        "type": "t_contract(IVeFUR)7535"
      },
      {
        "astId": 11226,
        "contract": "contracts/income-sharing/IncomeSharingVault.sol:IncomeSharingVault",
        "label": "pools",
        "offset": 0,
        "slot": "203",
        "type": "t_mapping(t_uint256,t_struct(PoolInfo)11221_storage)"
      },
      {
        "astId": 11238,
        "contract": "contracts/income-sharing/IncomeSharingVault.sol:IncomeSharingVault",
        "label": "users",
        "offset": 0,
        "slot": "204",
        "type": "t_mapping(t_uint256,t_mapping(t_address,t_struct(UserInfo)11231_storage))"
      },
      {
        "astId": 11240,
        "contract": "contracts/income-sharing/IncomeSharingVault.sol:IncomeSharingVault",
        "label": "nextPool",
        "offset": 0,
        "slot": "205",
        "type": "t_uint256"
      }
    ],
    "types": {
      "t_address": {
        "encoding": "inplace",
        "label": "address",
        "numberOfBytes": "20"
      },
      "t_array(t_uint256)49_storage": {
        "base": "t_uint256",
        "encoding": "inplace",
        "label": "uint256[49]",
        "numberOfBytes": "1568"
      },
      "t_array(t_uint256)50_storage": {
        "base": "t_uint256",
        "encoding": "inplace",
        "label": "uint256[50]",
        "numberOfBytes": "1600"
      },
      "t_bool": {
        "encoding": "inplace",
        "label": "bool",
        "numberOfBytes": "1"
      },
      "t_contract(IVeFUR)7535": {
        "encoding": "inplace",
        "label": "contract IVeFUR",
        "numberOfBytes": "20"
      },
      "t_mapping(t_address,t_struct(UserInfo)11231_storage)": {
        "encoding": "mapping",
        "key": "t_address",
        "label": "mapping(address => struct IncomeSharingVault.UserInfo)",
        "numberOfBytes": "32",
        "value": "t_struct(UserInfo)11231_storage"
      },
      "t_mapping(t_uint256,t_mapping(t_address,t_struct(UserInfo)11231_storage))": {
        "encoding": "mapping",
        "key": "t_uint256",
        "label": "mapping(uint256 => mapping(address => struct IncomeSharingVault.UserInfo))",
        "numberOfBytes": "32",
        "value": "t_mapping(t_address,t_struct(UserInfo)11231_storage)"
      },
      "t_mapping(t_uint256,t_struct(PoolInfo)11221_storage)": {
        "encoding": "mapping",
        "key": "t_uint256",
        "label": "mapping(uint256 => struct IncomeSharingVault.PoolInfo)",
        "numberOfBytes": "32",
        "value": "t_struct(PoolInfo)11221_storage"
      },
      "t_struct(PoolInfo)11221_storage": {
        "encoding": "inplace",
        "label": "struct IncomeSharingVault.PoolInfo",
        "members": [
          {
            "astId": 11210,
            "contract": "contracts/income-sharing/IncomeSharingVault.sol:IncomeSharingVault",
            "label": "available",
            "offset": 0,
            "slot": "0",
            "type": "t_bool"
          },
          {
            "astId": 11212,
            "contract": "contracts/income-sharing/IncomeSharingVault.sol:IncomeSharingVault",
            "label": "rewardToken",
            "offset": 1,
            "slot": "0",
            "type": "t_address"
          },
          {
            "astId": 11214,
            "contract": "contracts/income-sharing/IncomeSharingVault.sol:IncomeSharingVault",
            "label": "totalAmount",
            "offset": 0,
            "slot": "1",
            "type": "t_uint256"
          },
          {
            "astId": 11216,
            "contract": "contracts/income-sharing/IncomeSharingVault.sol:IncomeSharingVault",
            "label": "rewardPerSecond",
            "offset": 0,
            "slot": "2",
            "type": "t_uint256"
          },
          {
            "astId": 11218,
            "contract": "contracts/income-sharing/IncomeSharingVault.sol:IncomeSharingVault",
            "label": "accRewardPerShare",
            "offset": 0,
            "slot": "3",
            "type": "t_uint256"
          },
          {
            "astId": 11220,
            "contract": "contracts/income-sharing/IncomeSharingVault.sol:IncomeSharingVault",
            "label": "lastRewardTimestamp",
            "offset": 0,
            "slot": "4",
            "type": "t_uint256"
          }
        ],
        "numberOfBytes": "160"
      },
      "t_struct(UserInfo)11231_storage": {
        "encoding": "inplace",
        "label": "struct IncomeSharingVault.UserInfo",
        "members": [
          {
            "astId": 11228,
            "contract": "contracts/income-sharing/IncomeSharingVault.sol:IncomeSharingVault",
            "label": "totalAmount",
            "offset": 0,
            "slot": "0",
            "type": "t_uint256"
          },
          {
            "astId": 11230,
            "contract": "contracts/income-sharing/IncomeSharingVault.sol:IncomeSharingVault",
            "label": "rewardDebt",
            "offset": 0,
            "slot": "1",
            "type": "t_uint256"
          }
        ],
        "numberOfBytes": "64"
      },
      "t_uint256": {
        "encoding": "inplace",
        "label": "uint256",
        "numberOfBytes": "32"
      },
      "t_uint8": {
        "encoding": "inplace",
        "label": "uint8",
        "numberOfBytes": "1"
      }
    }
  }
}