{
  "address": "0x2544b5e5898A2CcF64B4bfB0D1a454152ef924C9",
  "abi": [
    {
      "anonymous": false,
      "inputs": [
        {
          "indexed": false,
          "internalType": "address",
          "name": "token",
          "type": "address"
        },
        {
          "indexed": false,
          "internalType": "uint256",
          "name": "amount",
          "type": "uint256"
        }
      ],
      "name": "EmergencyWithdraw",
      "type": "event"
    },
    {
      "anonymous": false,
      "inputs": [
        {
          "indexed": false,
          "internalType": "uint256",
          "name": "oldProportion",
          "type": "uint256"
        },
        {
          "indexed": false,
          "internalType": "uint256",
          "name": "newProportion",
          "type": "uint256"
        }
      ],
      "name": "IncomeProportionChanged",
      "type": "event"
    },
    {
      "anonymous": false,
      "inputs": [
        {
          "indexed": false,
          "internalType": "address",
          "name": "otherTokenAddress",
          "type": "address"
        },
        {
          "indexed": false,
          "internalType": "address",
          "name": "incomeTokenAddress",
          "type": "address"
        },
        {
          "indexed": false,
          "internalType": "uint256",
          "name": "amountIn",
          "type": "uint256"
        },
        {
          "indexed": false,
          "internalType": "uint256",
          "name": "amountOut",
          "type": "uint256"
        }
      ],
      "name": "IncomeToToken",
      "type": "event"
    },
    {
      "anonymous": false,
      "inputs": [
        {
          "indexed": false,
          "internalType": "address",
          "name": "oldToken",
          "type": "address"
        },
        {
          "indexed": false,
          "internalType": "address",
          "name": "newToken",
          "type": "address"
        }
      ],
      "name": "IncomeTokenChanged",
      "type": "event"
    },
    {
      "anonymous": false,
      "inputs": [
        {
          "indexed": false,
          "internalType": "uint8",
          "name": "version",
          "type": "uint8"
        }
      ],
      "name": "Initialized",
      "type": "event"
    },
    {
      "anonymous": false,
      "inputs": [
        {
          "indexed": true,
          "internalType": "address",
          "name": "previousOwner",
          "type": "address"
        },
        {
          "indexed": true,
          "internalType": "address",
          "name": "newOwner",
          "type": "address"
        }
      ],
      "name": "OwnershipTransferred",
      "type": "event"
    },
    {
      "inputs": [],
      "name": "PRICE_SCALE",
      "outputs": [
        {
          "internalType": "uint256",
          "name": "",
          "type": "uint256"
        }
      ],
      "stateMutability": "view",
      "type": "function"
    },
    {
      "inputs": [
        {
          "internalType": "address",
          "name": "_tokenA",
          "type": "address"
        },
        {
          "internalType": "address",
          "name": "_tokenB",
          "type": "address"
        }
      ],
      "name": "collectIncomeFromSwap",
      "outputs": [
        {
          "internalType": "uint256",
          "name": "amountIncome",
          "type": "uint256"
        }
      ],
      "stateMutability": "nonpayable",
      "type": "function"
    },
    {
      "inputs": [
        {
          "internalType": "address",
          "name": "_token",
          "type": "address"
        },
        {
          "internalType": "uint256",
          "name": "_amount",
          "type": "uint256"
        }
      ],
      "name": "emergencyWithdraw",
      "outputs": [],
      "stateMutability": "nonpayable",
      "type": "function"
    },
    {
      "inputs": [],
      "name": "factory",
      "outputs": [
        {
          "internalType": "contract IFurionSwapFactory",
          "name": "",
          "type": "address"
        }
      ],
      "stateMutability": "view",
      "type": "function"
    },
    {
      "inputs": [],
      "name": "incomeProportion",
      "outputs": [
        {
          "internalType": "uint256",
          "name": "",
          "type": "uint256"
        }
      ],
      "stateMutability": "view",
      "type": "function"
    },
    {
      "inputs": [],
      "name": "incomeSharingVault",
      "outputs": [
        {
          "internalType": "address",
          "name": "",
          "type": "address"
        }
      ],
      "stateMutability": "view",
      "type": "function"
    },
    {
      "inputs": [],
      "name": "incomeToken",
      "outputs": [
        {
          "internalType": "address",
          "name": "",
          "type": "address"
        }
      ],
      "stateMutability": "view",
      "type": "function"
    },
    {
      "inputs": [
        {
          "internalType": "address",
          "name": "_incomeToken",
          "type": "address"
        },
        {
          "internalType": "address",
          "name": "_router",
          "type": "address"
        },
        {
          "internalType": "address",
          "name": "_factory",
          "type": "address"
        },
        {
          "internalType": "address",
          "name": "_vault",
          "type": "address"
        }
      ],
      "name": "initialize",
      "outputs": [],
      "stateMutability": "nonpayable",
      "type": "function"
    },
    {
      "inputs": [],
      "name": "owner",
      "outputs": [
        {
          "internalType": "address",
          "name": "",
          "type": "address"
        }
      ],
      "stateMutability": "view",
      "type": "function"
    },
    {
      "inputs": [],
      "name": "renounceOwnership",
      "outputs": [],
      "stateMutability": "nonpayable",
      "type": "function"
    },
    {
      "inputs": [],
      "name": "router",
      "outputs": [
        {
          "internalType": "contract IFurionSwapV2Router",
          "name": "",
          "type": "address"
        }
      ],
      "stateMutability": "view",
      "type": "function"
    },
    {
      "inputs": [
        {
          "internalType": "uint8",
          "name": "_newIncomeProportion",
          "type": "uint8"
        }
      ],
      "name": "setIncomeProportion",
      "outputs": [],
      "stateMutability": "nonpayable",
      "type": "function"
    },
    {
      "inputs": [
        {
          "internalType": "address",
          "name": "_newIncomeToken",
          "type": "address"
        }
      ],
      "name": "setIncomeToken",
      "outputs": [],
      "stateMutability": "nonpayable",
      "type": "function"
    },
    {
      "inputs": [
        {
          "internalType": "address",
          "name": "newOwner",
          "type": "address"
        }
      ],
      "name": "transferOwnership",
      "outputs": [],
      "stateMutability": "nonpayable",
      "type": "function"
    },
    {
      "inputs": [],
      "name": "uint_MAX",
      "outputs": [
        {
          "internalType": "uint256",
          "name": "",
          "type": "uint256"
        }
      ],
      "stateMutability": "view",
      "type": "function"
    }
  ],
  "transactionHash": "0xa0d75bf7ea2795a208ce2e82cf9f2e3a8f268a5598d0f0f34bbc514584a73bc1",
  "args": [],
  "numDeployments": 1,
  "solcInputHash": "f71c7515d120a5406563342b21637eec",
  "bytecode": "0x608060405234801561001057600080fd5b50611671806100206000396000f3fe608060405234801561001057600080fd5b50600436106100f55760003560e01c8063bc66ce0a11610097578063ecb72ffb11610066578063ecb72ffb146101ce578063f2fde38b146101e1578063f887ea40146101f4578063f8c8765e1461020757600080fd5b8063bc66ce0a1461018b578063bd8148421461019e578063c33f59d3146101b1578063c45a0155146101bb57600080fd5b8063715018a6116100d3578063715018a614610156578063730b86e21461015e5780638da5cb5b1461016757806395ccea671461017857600080fd5b80633516bd42146100fa578063436e667d1461011657806344224a841461012b575b600080fd5b61010360695481565b6040519081526020015b60405180910390f35b61012961012436600461137c565b61021a565b005b60675461013e906001600160a01b031681565b6040516001600160a01b03909116815260200161010d565b610129610339565b61010360001981565b6033546001600160a01b031661013e565b6101296101863660046113b4565b61039f565b60685461013e906001600160a01b031681565b6101296101ac3660046113e0565b610453565b610103620f424081565b60665461013e906001600160a01b031681565b6101036101dc3660046113fd565b610579565b6101296101ef3660046113e0565b610840565b60655461013e906001600160a01b031681565b610129610215366004611436565b610922565b6033546001600160a01b031633146102795760405162461bcd60e51b815260206004820181905260248201527f4f776e61626c653a2063616c6c6572206973206e6f7420746865206f776e657260448201526064015b60405180910390fd5b60648160ff1611156102f35760405162461bcd60e51b815260206004820152602560248201527f494e434f4d455f4d414b45523a204558434545445f50524f504f5254494f4e5f60448201527f52414e47450000000000000000000000000000000000000000000000000000006064820152608401610270565b6069546040805191825260ff831660208301527fcd295070f1c6ae0c84d072d22354bea3b6bf1d4dec79122ec52302e2b89742a8910160405180910390a160ff16606955565b6033546001600160a01b031633146103935760405162461bcd60e51b815260206004820181905260248201527f4f776e61626c653a2063616c6c6572206973206e6f7420746865206f776e65726044820152606401610270565b61039d60006109f7565b565b6033546001600160a01b031633146103f95760405162461bcd60e51b815260206004820181905260248201527f4f776e61626c653a2063616c6c6572206973206e6f7420746865206f776e65726044820152606401610270565b61040d6001600160a01b0383163383610a56565b604080516001600160a01b0384168152602081018390527f5fafa99d0643513820be26656b45130b01e1c03062e1266bf36f88cbd3bd9695910160405180910390a15050565b6033546001600160a01b031633146104ad5760405162461bcd60e51b815260206004820181905260248201527f4f776e61626c653a2063616c6c6572206973206e6f7420746865206f776e65726044820152606401610270565b6001600160a01b0381166105035760405162461bcd60e51b815260206004820152601a60248201527f494e434f4d455f4d414b45523a205a45524f5f414444524553530000000000006044820152606401610270565b606854604080516001600160a01b03928316815291831660208301527fed7b14238643cc3a509981e2f90c566f7842da34511087535632d8b2e8a13995910160405180910390a16068805473ffffffffffffffffffffffffffffffffffffffff19166001600160a01b0392909216919091179055565b60665460405163e6a4390560e01b81526001600160a01b0384811660048301528381166024830152600092839291169063e6a4390590604401602060405180830381865afa1580156105cf573d6000803e3d6000fd5b505050506040513d601f19601f820116820180604052508101906105f39190611492565b90506001600160a01b03811661064b5760405162461bcd60e51b815260206004820152601c60248201527f494e434f4d455f4d414b45523a20504149525f4e4f545f4558495354000000006044820152606401610270565b600080846001600160a01b0316866001600160a01b03161061066e578486610671565b85855b6040516370a0823160e01b815230600482015291935091506106f59084906001600160a01b038216906370a0823190602401602060405180830381865afa1580156106c0573d6000803e3d6000fd5b505050506040513d601f19601f820116820180604052508101906106e491906114af565b6001600160a01b0386169190610a56565b60405163226bf2d160e21b815230600482015260009081906001600160a01b038616906389afcb449060240160408051808303816000875af115801561073f573d6000803e3d6000fd5b505050506040513d601f19601f8201168201806040525081019061076391906114c8565b9150915060006107738584610ac2565b905060006107818584610ac2565b905061078d8183611502565b6067546069546068546040516370a0823160e01b8152306004820152939b50610833936001600160a01b03938416936064939216906370a0823190602401602060405180830381865afa1580156107e8573d6000803e3d6000fd5b505050506040513d601f19601f8201168201806040525081019061080c91906114af565b610816919061151a565b6108209190611539565b6068546001600160a01b03169190610a56565b5050505050505092915050565b6033546001600160a01b0316331461089a5760405162461bcd60e51b815260206004820181905260248201527f4f776e61626c653a2063616c6c6572206973206e6f7420746865206f776e65726044820152606401610270565b6001600160a01b0381166109165760405162461bcd60e51b815260206004820152602660248201527f4f776e61626c653a206e6577206f776e657220697320746865207a65726f206160448201527f64647265737300000000000000000000000000000000000000000000000000006064820152608401610270565b61091f816109f7565b50565b600061092e6001610c1a565b90508015610946576000805461ff0019166101001790555b61094e610d35565b606880546001600160a01b0380881673ffffffffffffffffffffffffffffffffffffffff199283161790925560658054878416908316179055606680548684169083161790556067805492851692909116919091179055605060695580156109f0576000805461ff0019169055604051600181527f7f26b83ff96e1f2b6a682f133852f6798a09c465da95921460cefb38474024989060200160405180910390a15b5050505050565b603380546001600160a01b0383811673ffffffffffffffffffffffffffffffffffffffff19831681179093556040519116919082907f8be0079c531659141344cd1fd0a4f28419497f9722a3daafe3b4186f6b6457e090600090a35050565b604080516001600160a01b038416602482015260448082018490528251808303909101815260649091019091526020810180517bffffffffffffffffffffffffffffffffffffffffffffffffffffffff1663a9059cbb60e01b179052610abd908490610da8565b505050565b6068546000906001600160a01b03848116911614610c145760665460685460405163e6a4390560e01b81526001600160a01b0386811660048301529182166024820152600092919091169063e6a4390590604401602060405180830381865afa158015610b33573d6000803e3d6000fd5b505050506040513d601f19601f82011682018060405250810190610b579190611492565b90506001600160a01b038116610baf5760405162461bcd60e51b815260206004820152601c60248201527f494e434f4d455f4d414b45523a20504149525f4e4f545f4558495354000000006044820152606401610270565b610bba848430610e8d565b606854604080516001600160a01b03808916825290921660208301528101859052606081018290529092507f8344388cfe5ad0701454f307530b263da2563c5d829476be8def9f18bc668a949060800160405180910390a1505b92915050565b60008054610100900460ff1615610ca8578160ff166001148015610c3d5750303b155b610ca05760405162461bcd60e51b815260206004820152602e60248201527f496e697469616c697a61626c653a20636f6e747261637420697320616c72656160448201526d191e481a5b9a5d1a585b1a5e995960921b6064820152608401610270565b506000919050565b60005460ff808416911610610d165760405162461bcd60e51b815260206004820152602e60248201527f496e697469616c697a61626c653a20636f6e747261637420697320616c72656160448201526d191e481a5b9a5d1a585b1a5e995960921b6064820152608401610270565b506000805460ff191660ff92909216919091179055600190565b919050565b600054610100900460ff16610da05760405162461bcd60e51b815260206004820152602b60248201527f496e697469616c697a61626c653a20636f6e7472616374206973206e6f74206960448201526a6e697469616c697a696e6760a81b6064820152608401610270565b61039d61116e565b6000610dfd826040518060400160405280602081526020017f5361666545524332303a206c6f772d6c6576656c2063616c6c206661696c6564815250856001600160a01b03166111e29092919063ffffffff16565b805190915015610abd5780806020019051810190610e1b919061155b565b610abd5760405162461bcd60e51b815260206004820152602a60248201527f5361666545524332303a204552433230206f7065726174696f6e20646964206e60448201527f6f742073756363656564000000000000000000000000000000000000000000006064820152608401610270565b60665460685460405163e6a4390560e01b81526001600160a01b03868116600483015291821660248201526000928392169063e6a4390590604401602060405180830381865afa158015610ee5573d6000803e3d6000fd5b505050506040513d601f19601f82011682018060405250810190610f099190611492565b90506001600160a01b038116610f615760405162461bcd60e51b815260206004820152601c60248201527f494e434f4d455f4d414b45523a20504149525f4e4f545f4558495354000000006044820152606401610270565b600080826001600160a01b0316630902f1ac6040518163ffffffff1660e01b81526004016040805180830381865afa158015610fa1573d6000803e3d6000fd5b505050506040513d601f19601f82011682018060405250810190610fc5919061159b565b6068546dffffffffffffffffffffffffffff92831694509116915060009081906001600160a01b03908116908a1610610fff578284611002565b83835b915091506000856001600160a01b031663978bbdb96040518163ffffffff1660e01b8152600401602060405180830381865afa158015611046573d6000803e3d6000fd5b505050506040513d601f19601f8201168201806040525081019061106a91906114af565b9050600061107a826103e86115ce565b611084908b61151a565b905080611093856103e861151a565b61109d9190611502565b6110a7848361151a565b6110b19190611539565b97506110c76001600160a01b038c16888c610a56565b60685460009081906001600160a01b03908116908e16106110ea578960006110ee565b60008a5b6040516336cd320560e11b815260048101839052602481018290526001600160a01b038e81166044830152929450909250908a1690636d9a640a90606401600060405180830381600087803b15801561114657600080fd5b505af115801561115a573d6000803e3d6000fd5b505050505050505050505050509392505050565b600054610100900460ff166111d95760405162461bcd60e51b815260206004820152602b60248201527f496e697469616c697a61626c653a20636f6e7472616374206973206e6f74206960448201526a6e697469616c697a696e6760a81b6064820152608401610270565b61039d336109f7565b60606111f184846000856111fb565b90505b9392505050565b6060824710156112735760405162461bcd60e51b815260206004820152602660248201527f416464726573733a20696e73756666696369656e742062616c616e636520666f60448201527f722063616c6c00000000000000000000000000000000000000000000000000006064820152608401610270565b6001600160a01b0385163b6112ca5760405162461bcd60e51b815260206004820152601d60248201527f416464726573733a2063616c6c20746f206e6f6e2d636f6e74726163740000006044820152606401610270565b600080866001600160a01b031685876040516112e69190611615565b60006040518083038185875af1925050503d8060008114611323576040519150601f19603f3d011682016040523d82523d6000602084013e611328565b606091505b5091509150611338828286611343565b979650505050505050565b606083156113525750816111f4565b8251156113625782518084602001fd5b8160405162461bcd60e51b81526004016102709190611631565b60006020828403121561138e57600080fd5b813560ff811681146111f457600080fd5b6001600160a01b038116811461091f57600080fd5b600080604083850312156113c757600080fd5b82356113d28161139f565b946020939093013593505050565b6000602082840312156113f257600080fd5b81356111f48161139f565b6000806040838503121561141057600080fd5b823561141b8161139f565b9150602083013561142b8161139f565b809150509250929050565b6000806000806080858703121561144c57600080fd5b84356114578161139f565b935060208501356114678161139f565b925060408501356114778161139f565b915060608501356114878161139f565b939692955090935050565b6000602082840312156114a457600080fd5b81516111f48161139f565b6000602082840312156114c157600080fd5b5051919050565b600080604083850312156114db57600080fd5b505080516020909101519092909150565b634e487b7160e01b600052601160045260246000fd5b60008219821115611515576115156114ec565b500190565b6000816000190483118215151615611534576115346114ec565b500290565b60008261155657634e487b7160e01b600052601260045260246000fd5b500490565b60006020828403121561156d57600080fd5b815180151581146111f457600080fd5b80516dffffffffffffffffffffffffffff81168114610d3057600080fd5b600080604083850312156115ae57600080fd5b6115b78361157d565b91506115c56020840161157d565b90509250929050565b6000828210156115e0576115e06114ec565b500390565b60005b838110156116005781810151838201526020016115e8565b8381111561160f576000848401525b50505050565b600082516116278184602087016115e5565b9190910192915050565b60208152600082518060208401526116508160408501602087016115e5565b601f01601f1916919091016040019291505056fea164736f6c634300080d000a",
  "devdoc": {
    "kind": "dev",
    "methods": {
      "collectIncomeFromSwap(address,address)": {
        "params": {
          "_tokenA": "Address of tokenA for trading pair",
          "_tokenB": "Address of tokenB for trading pair"
        },
        "returns": {
          "amountIncome": "Amount of income collected"
        }
      },
      "emergencyWithdraw(address,uint256)": {
        "params": {
          "_amount": "Amount of the token",
          "_token": "Address of the token"
        }
      },
      "initialize(address,address,address,address)": {
        "params": {
          "_factory": "Address of the FurionSwap factory",
          "_incomeToken": "Address of income token, default by FUR",
          "_router": "Address of the FurionSwap router",
          "_vault": "Address of the income sharing vault"
        }
      },
      "owner()": {
        "details": "Returns the address of the current owner."
      },
      "renounceOwnership()": {
        "details": "Leaves the contract without owner. It will not be possible to call `onlyOwner` functions anymore. Can only be called by the current owner. NOTE: Renouncing ownership will leave the contract without an owner, thereby removing any functionality that is only available to the owner."
      },
      "transferOwnership(address)": {
        "details": "Transfers ownership of the contract to a new account (`newOwner`). Can only be called by the current owner."
      }
    },
    "version": 1
  },
  "userdoc": {
    "kind": "user",
    "methods": {
      "collectIncomeFromSwap(address,address)": {
        "notice": "Collect income from furion swap, turn token into incomeToken, and transfer to the incomeSharingVault"
      },
      "emergencyWithdraw(address,uint256)": {
        "notice": "Emergency withdraw by the owner"
      },
      "initialize(address,address,address,address)": {
        "notice": "Initialize function"
      }
    },
    "version": 1
  },
  "storageLayout": {
    "storage": [
      {
        "astId": 130,
        "contract": "contracts/income-sharing/IncomeMaker.sol:IncomeMaker",
        "label": "_initialized",
        "offset": 0,
        "slot": "0",
        "type": "t_uint8"
      },
      {
        "astId": 133,
        "contract": "contracts/income-sharing/IncomeMaker.sol:IncomeMaker",
        "label": "_initializing",
        "offset": 1,
        "slot": "0",
        "type": "t_bool"
      },
      {
        "astId": 719,
        "contract": "contracts/income-sharing/IncomeMaker.sol:IncomeMaker",
        "label": "__gap",
        "offset": 0,
        "slot": "1",
        "type": "t_array(t_uint256)50_storage"
      },
      {
        "astId": 10,
        "contract": "contracts/income-sharing/IncomeMaker.sol:IncomeMaker",
        "label": "_owner",
        "offset": 0,
        "slot": "51",
        "type": "t_address"
      },
      {
        "astId": 122,
        "contract": "contracts/income-sharing/IncomeMaker.sol:IncomeMaker",
        "label": "__gap",
        "offset": 0,
        "slot": "52",
        "type": "t_array(t_uint256)49_storage"
      },
      {
        "astId": 10710,
        "contract": "contracts/income-sharing/IncomeMaker.sol:IncomeMaker",
        "label": "router",
        "offset": 0,
        "slot": "101",
        "type": "t_contract(IFurionSwapV2Router)10683"
      },
      {
        "astId": 10713,
        "contract": "contracts/income-sharing/IncomeMaker.sol:IncomeMaker",
        "label": "factory",
        "offset": 0,
        "slot": "102",
        "type": "t_contract(IFurionSwapFactory)10413"
      },
      {
        "astId": 10715,
        "contract": "contracts/income-sharing/IncomeMaker.sol:IncomeMaker",
        "label": "incomeSharingVault",
        "offset": 0,
        "slot": "103",
        "type": "t_address"
      },
      {
        "astId": 10717,
        "contract": "contracts/income-sharing/IncomeMaker.sol:IncomeMaker",
        "label": "incomeToken",
        "offset": 0,
        "slot": "104",
        "type": "t_address"
      },
      {
        "astId": 10719,
        "contract": "contracts/income-sharing/IncomeMaker.sol:IncomeMaker",
        "label": "incomeProportion",
        "offset": 0,
        "slot": "105",
        "type": "t_uint256"
      }
    ],
    "types": {
      "t_address": {
        "encoding": "inplace",
        "label": "address",
        "numberOfBytes": "20"
      },
      "t_array(t_uint256)49_storage": {
        "base": "t_uint256",
        "encoding": "inplace",
        "label": "uint256[49]",
        "numberOfBytes": "1568"
      },
      "t_array(t_uint256)50_storage": {
        "base": "t_uint256",
        "encoding": "inplace",
        "label": "uint256[50]",
        "numberOfBytes": "1600"
      },
      "t_bool": {
        "encoding": "inplace",
        "label": "bool",
        "numberOfBytes": "1"
      },
      "t_contract(IFurionSwapFactory)10413": {
        "encoding": "inplace",
        "label": "contract IFurionSwapFactory",
        "numberOfBytes": "20"
      },
      "t_contract(IFurionSwapV2Router)10683": {
        "encoding": "inplace",
        "label": "contract IFurionSwapV2Router",
        "numberOfBytes": "20"
      },
      "t_uint256": {
        "encoding": "inplace",
        "label": "uint256",
        "numberOfBytes": "32"
      },
      "t_uint8": {
        "encoding": "inplace",
        "label": "uint8",
        "numberOfBytes": "1"
      }
    }
  }
}