{
  "address": "0x8C0fE8A0B3d2D02f80C37ca253FcF8015C2C06B7",
  "abi": [
    {
      "inputs": [],
      "name": "VEF__NotEnoughBalance",
      "type": "error"
    },
    {
      "inputs": [],
      "name": "VEF__NotWhiteListed",
      "type": "error"
    },
    {
      "inputs": [],
      "name": "VEF__OverLocked",
      "type": "error"
    },
    {
      "inputs": [],
      "name": "VEF__StillLocked",
      "type": "error"
    },
    {
      "inputs": [],
      "name": "VEF__TimeNotPassed",
      "type": "error"
    },
    {
      "inputs": [],
      "name": "VEF__ZeroAddress",
      "type": "error"
    },
    {
      "inputs": [],
      "name": "VEF__ZeroAmount",
      "type": "error"
    },
    {
      "anonymous": false,
      "inputs": [
        {
          "indexed": true,
          "internalType": "address",
          "name": "account",
          "type": "address"
        },
        {
          "indexed": false,
          "internalType": "uint256",
          "name": "value",
          "type": "uint256"
        }
      ],
      "name": "Burn",
      "type": "event"
    },
    {
      "anonymous": false,
      "inputs": [
        {
          "indexed": true,
          "internalType": "address",
          "name": "caller",
          "type": "address"
        },
        {
          "indexed": true,
          "internalType": "address",
          "name": "user",
          "type": "address"
        },
        {
          "indexed": false,
          "internalType": "uint256",
          "name": "amount",
          "type": "uint256"
        }
      ],
      "name": "BurnVeFUR",
      "type": "event"
    },
    {
      "anonymous": false,
      "inputs": [
        {
          "indexed": true,
          "internalType": "address",
          "name": "user",
          "type": "address"
        },
        {
          "indexed": false,
          "internalType": "uint256",
          "name": "amount",
          "type": "uint256"
        }
      ],
      "name": "Claimed",
      "type": "event"
    },
    {
      "anonymous": false,
      "inputs": [
        {
          "indexed": true,
          "internalType": "address",
          "name": "user",
          "type": "address"
        },
        {
          "indexed": false,
          "internalType": "uint256",
          "name": "amount",
          "type": "uint256"
        }
      ],
      "name": "Deposit",
      "type": "event"
    },
    {
      "anonymous": false,
      "inputs": [
        {
          "indexed": true,
          "internalType": "address",
          "name": "user",
          "type": "address"
        },
        {
          "indexed": false,
          "internalType": "uint256",
          "name": "amount",
          "type": "uint256"
        },
        {
          "indexed": false,
          "internalType": "uint256",
          "name": "lockUntil",
          "type": "uint256"
        }
      ],
      "name": "DepositMaxTime",
      "type": "event"
    },
    {
      "anonymous": false,
      "inputs": [
        {
          "indexed": false,
          "internalType": "uint256",
          "name": "oldRate",
          "type": "uint256"
        },
        {
          "indexed": false,
          "internalType": "uint256",
          "name": "newRate",
          "type": "uint256"
        }
      ],
      "name": "GenerationRateChanged",
      "type": "event"
    },
    {
      "anonymous": false,
      "inputs": [
        {
          "indexed": false,
          "internalType": "uint8",
          "name": "version",
          "type": "uint8"
        }
      ],
      "name": "Initialized",
      "type": "event"
    },
    {
      "anonymous": false,
      "inputs": [
        {
          "indexed": true,
          "internalType": "address",
          "name": "caller",
          "type": "address"
        },
        {
          "indexed": true,
          "internalType": "address",
          "name": "user",
          "type": "address"
        },
        {
          "indexed": false,
          "internalType": "uint256",
          "name": "amount",
          "type": "uint256"
        }
      ],
      "name": "LockVeFUR",
      "type": "event"
    },
    {
      "anonymous": false,
      "inputs": [
        {
          "indexed": false,
          "internalType": "uint256",
          "name": "oldMaxCapRatio",
          "type": "uint256"
        },
        {
          "indexed": false,
          "internalType": "uint256",
          "name": "newMaxCapRatio",
          "type": "uint256"
        }
      ],
      "name": "MaxCapRatioChanged",
      "type": "event"
    },
    {
      "anonymous": false,
      "inputs": [
        {
          "indexed": true,
          "internalType": "address",
          "name": "beneficiary",
          "type": "address"
        },
        {
          "indexed": false,
          "internalType": "uint256",
          "name": "value",
          "type": "uint256"
        }
      ],
      "name": "Mint",
      "type": "event"
    },
    {
      "anonymous": false,
      "inputs": [
        {
          "indexed": true,
          "internalType": "address",
          "name": "previousOwner",
          "type": "address"
        },
        {
          "indexed": true,
          "internalType": "address",
          "name": "newOwner",
          "type": "address"
        }
      ],
      "name": "OwnershipTransferred",
      "type": "event"
    },
    {
      "anonymous": false,
      "inputs": [
        {
          "indexed": false,
          "internalType": "address",
          "name": "account",
          "type": "address"
        }
      ],
      "name": "Paused",
      "type": "event"
    },
    {
      "anonymous": false,
      "inputs": [
        {
          "indexed": true,
          "internalType": "address",
          "name": "caller",
          "type": "address"
        },
        {
          "indexed": true,
          "internalType": "address",
          "name": "user",
          "type": "address"
        },
        {
          "indexed": false,
          "internalType": "uint256",
          "name": "amount",
          "type": "uint256"
        }
      ],
      "name": "UnlockVeFUR",
      "type": "event"
    },
    {
      "anonymous": false,
      "inputs": [
        {
          "indexed": false,
          "internalType": "address",
          "name": "account",
          "type": "address"
        }
      ],
      "name": "Unpaused",
      "type": "event"
    },
    {
      "anonymous": false,
      "inputs": [
        {
          "indexed": false,
          "internalType": "address",
          "name": "newWhiteList",
          "type": "address"
        }
      ],
      "name": "WhiteListAdded",
      "type": "event"
    },
    {
      "anonymous": false,
      "inputs": [
        {
          "indexed": false,
          "internalType": "address",
          "name": "oldWhiteList",
          "type": "address"
        }
      ],
      "name": "WhiteListRemoVEF",
      "type": "event"
    },
    {
      "anonymous": false,
      "inputs": [
        {
          "indexed": true,
          "internalType": "address",
          "name": "user",
          "type": "address"
        },
        {
          "indexed": false,
          "internalType": "uint256",
          "name": "amount",
          "type": "uint256"
        }
      ],
      "name": "Withdraw",
      "type": "event"
    },
    {
      "inputs": [],
      "name": "SCALE",
      "outputs": [
        {
          "internalType": "uint256",
          "name": "",
          "type": "uint256"
        }
      ],
      "stateMutability": "view",
      "type": "function"
    },
    {
      "inputs": [
        {
          "internalType": "address",
          "name": "_account",
          "type": "address"
        }
      ],
      "name": "addWhitelist",
      "outputs": [],
      "stateMutability": "nonpayable",
      "type": "function"
    },
    {
      "inputs": [
        {
          "internalType": "address",
          "name": "account",
          "type": "address"
        }
      ],
      "name": "balanceOf",
      "outputs": [
        {
          "internalType": "uint256",
          "name": "",
          "type": "uint256"
        }
      ],
      "stateMutability": "view",
      "type": "function"
    },
    {
      "inputs": [
        {
          "internalType": "address",
          "name": "_to",
          "type": "address"
        },
        {
          "internalType": "uint256",
          "name": "_amount",
          "type": "uint256"
        }
      ],
      "name": "burnVeFUR",
      "outputs": [],
      "stateMutability": "nonpayable",
      "type": "function"
    },
    {
      "inputs": [],
      "name": "claim",
      "outputs": [],
      "stateMutability": "nonpayable",
      "type": "function"
    },
    {
      "inputs": [
        {
          "internalType": "address",
          "name": "_user",
          "type": "address"
        }
      ],
      "name": "claimable",
      "outputs": [
        {
          "internalType": "uint256",
          "name": "",
          "type": "uint256"
        }
      ],
      "stateMutability": "view",
      "type": "function"
    },
    {
      "inputs": [],
      "name": "decimals",
      "outputs": [
        {
          "internalType": "uint8",
          "name": "",
          "type": "uint8"
        }
      ],
      "stateMutability": "view",
      "type": "function"
    },
    {
      "inputs": [
        {
          "internalType": "uint256",
          "name": "_amount",
          "type": "uint256"
        }
      ],
      "name": "deposit",
      "outputs": [],
      "stateMutability": "nonpayable",
      "type": "function"
    },
    {
      "inputs": [
        {
          "internalType": "uint256",
          "name": "_amount",
          "type": "uint256"
        }
      ],
      "name": "depositMaxTime",
      "outputs": [],
      "stateMutability": "nonpayable",
      "type": "function"
    },
    {
      "inputs": [],
      "name": "furion",
      "outputs": [
        {
          "internalType": "contract IERC20",
          "name": "",
          "type": "address"
        }
      ],
      "stateMutability": "view",
      "type": "function"
    },
    {
      "inputs": [],
      "name": "generationRate",
      "outputs": [
        {
          "internalType": "uint256",
          "name": "",
          "type": "uint256"
        }
      ],
      "stateMutability": "view",
      "type": "function"
    },
    {
      "inputs": [
        {
          "internalType": "address",
          "name": "_furion",
          "type": "address"
        }
      ],
      "name": "initialize",
      "outputs": [],
      "stateMutability": "nonpayable",
      "type": "function"
    },
    {
      "inputs": [
        {
          "internalType": "address",
          "name": "_to",
          "type": "address"
        },
        {
          "internalType": "uint256",
          "name": "_amount",
          "type": "uint256"
        }
      ],
      "name": "lockVeFUR",
      "outputs": [],
      "stateMutability": "nonpayable",
      "type": "function"
    },
    {
      "inputs": [
        {
          "internalType": "address",
          "name": "",
          "type": "address"
        }
      ],
      "name": "locked",
      "outputs": [
        {
          "internalType": "uint256",
          "name": "",
          "type": "uint256"
        }
      ],
      "stateMutability": "view",
      "type": "function"
    },
    {
      "inputs": [],
      "name": "maxCapRatio",
      "outputs": [
        {
          "internalType": "uint256",
          "name": "",
          "type": "uint256"
        }
      ],
      "stateMutability": "view",
      "type": "function"
    },
    {
      "inputs": [],
      "name": "name",
      "outputs": [
        {
          "internalType": "string",
          "name": "",
          "type": "string"
        }
      ],
      "stateMutability": "view",
      "type": "function"
    },
    {
      "inputs": [],
      "name": "owner",
      "outputs": [
        {
          "internalType": "address",
          "name": "",
          "type": "address"
        }
      ],
      "stateMutability": "view",
      "type": "function"
    },
    {
      "inputs": [],
      "name": "pause",
      "outputs": [],
      "stateMutability": "nonpayable",
      "type": "function"
    },
    {
      "inputs": [],
      "name": "paused",
      "outputs": [
        {
          "internalType": "bool",
          "name": "",
          "type": "bool"
        }
      ],
      "stateMutability": "view",
      "type": "function"
    },
    {
      "inputs": [
        {
          "internalType": "address",
          "name": "_account",
          "type": "address"
        }
      ],
      "name": "removeWhitelist",
      "outputs": [],
      "stateMutability": "nonpayable",
      "type": "function"
    },
    {
      "inputs": [],
      "name": "renounceOwnership",
      "outputs": [],
      "stateMutability": "nonpayable",
      "type": "function"
    },
    {
      "inputs": [
        {
          "internalType": "uint256",
          "name": "_generationRate",
          "type": "uint256"
        }
      ],
      "name": "setGenerationRate",
      "outputs": [],
      "stateMutability": "nonpayable",
      "type": "function"
    },
    {
      "inputs": [
        {
          "internalType": "uint256",
          "name": "_maxCapRatio",
          "type": "uint256"
        }
      ],
      "name": "setMaxCapRatio",
      "outputs": [],
      "stateMutability": "nonpayable",
      "type": "function"
    },
    {
      "inputs": [],
      "name": "symbol",
      "outputs": [
        {
          "internalType": "string",
          "name": "",
          "type": "string"
        }
      ],
      "stateMutability": "view",
      "type": "function"
    },
    {
      "inputs": [],
      "name": "totalSupply",
      "outputs": [
        {
          "internalType": "uint256",
          "name": "",
          "type": "uint256"
        }
      ],
      "stateMutability": "view",
      "type": "function"
    },
    {
      "inputs": [
        {
          "internalType": "address",
          "name": "newOwner",
          "type": "address"
        }
      ],
      "name": "transferOwnership",
      "outputs": [],
      "stateMutability": "nonpayable",
      "type": "function"
    },
    {
      "inputs": [
        {
          "internalType": "address",
          "name": "_to",
          "type": "address"
        },
        {
          "internalType": "uint256",
          "name": "_amount",
          "type": "uint256"
        }
      ],
      "name": "unlockVeFUR",
      "outputs": [],
      "stateMutability": "nonpayable",
      "type": "function"
    },
    {
      "inputs": [],
      "name": "unpause",
      "outputs": [],
      "stateMutability": "nonpayable",
      "type": "function"
    },
    {
      "inputs": [
        {
          "internalType": "address",
          "name": "",
          "type": "address"
        }
      ],
      "name": "users",
      "outputs": [
        {
          "internalType": "uint256",
          "name": "amount",
          "type": "uint256"
        },
        {
          "internalType": "uint256",
          "name": "lastRelease",
          "type": "uint256"
        },
        {
          "internalType": "uint256",
          "name": "amountLocked",
          "type": "uint256"
        },
        {
          "internalType": "uint256",
          "name": "lockUntil",
          "type": "uint256"
        }
      ],
      "stateMutability": "view",
      "type": "function"
    },
    {
      "inputs": [
        {
          "internalType": "address",
          "name": "",
          "type": "address"
        }
      ],
      "name": "whitelist",
      "outputs": [
        {
          "internalType": "bool",
          "name": "",
          "type": "bool"
        }
      ],
      "stateMutability": "view",
      "type": "function"
    },
    {
      "inputs": [
        {
          "internalType": "uint256",
          "name": "_amount",
          "type": "uint256"
        }
      ],
      "name": "withdraw",
      "outputs": [],
      "stateMutability": "nonpayable",
      "type": "function"
    },
    {
      "inputs": [],
      "name": "withdrawLocked",
      "outputs": [],
      "stateMutability": "nonpayable",
      "type": "function"
    }
  ],
  "transactionHash": "0xec28948ad910d300ad6643763333eb2e367a9417744e7cc0090e269556e837ea",
  "args": [],
  "numDeployments": 1,
  "solcInputHash": "f71c7515d120a5406563342b21637eec",
  "bytecode": "0x608060405234801561001057600080fd5b50612600806100206000396000f3fe608060405234801561001057600080fd5b50600436106101f05760003560e01c80637b1ba2501161010f578063b93dd6ad116100a2578063d135cc4b11610071578063d135cc4b14610453578063eced55261461045b578063f2fde38b1461046a578063f80f5dd51461047d57600080fd5b8063b93dd6ad146103f9578063c4d66de81461040c578063c95ad5471461041f578063cbf9fe5f1461043257600080fd5b806395d89b41116100de57806395d89b41146103655780639b19251a1461036d578063a87430ba14610391578063b6b55f25146103e657600080fd5b80637b1ba2501461031c5780638456cb59146103255780638da5cb5b1461032d578063909ff8281461035257600080fd5b80635c975abb1161018757806374819f4a1161015657806374819f4a146102da57806376da9bbb146102e357806378c8cda7146102f65780637b196fbc1461030957600080fd5b80635c975abb1461027f57806360fc8d431461029657806370a08231146102a9578063715018a6146102d257600080fd5b8063313ce567116101c3578063313ce5671461024d5780633f4ba83a1461025c578063402914f5146102645780634e71d92d1461027757600080fd5b806306fdde03146101f557806318160ddd14610213578063282a1129146102255780632e1a7d4d1461023a575b600080fd5b6101fd610490565b60405161020a919061244d565b60405180910390f35b60cb545b60405190815260200161020a565b610238610233366004612480565b610522565b005b610238610248366004612480565b6105e3565b6040516012815260200161020a565b6102386107be565b6102176102723660046124b0565b610822565b610238610960565b60975460ff165b604051901515815260200161020a565b6102386102a43660046124cb565b610a3c565b6102176102b73660046124b0565b6001600160a01b0316600090815260c9602052604090205490565b610238610abc565b61021760fd5481565b6102386102f13660046124cb565b610b20565b6102386103043660046124b0565b610be8565b610238610317366004612480565b610c9a565b61021760fe5481565b610238610e57565b6033546001600160a01b03165b6040516001600160a01b03909116815260200161020a565b60fc5461033a906001600160a01b031681565b6101fd610eb9565b61028661037b3660046124b0565b60ff602081905260009182526040909120541681565b6103c661039f3660046124b0565b60fb6020526000908152604090208054600182015460028301546003909301549192909184565b60408051948552602085019390935291830152606082015260800161020a565b6102386103f4366004612480565b610ec8565b610238610407366004612480565b61107f565b61023861041a3660046124b0565b61113b565b61023861042d3660046124cb565b611295565b6102176104403660046124b0565b6101006020526000908152604090205481565b610238611347565b610217670de0b6b3a764000081565b6102386104783660046124b0565b6114ff565b61023861048b3660046124b0565b6115e1565b606060cc805461049f906124f5565b80601f01602080910402602001604051908101604052809291908181526020018280546104cb906124f5565b80156105185780601f106104ed57610100808354040283529160200191610518565b820191906000526020600020905b8154815290600101906020018083116104fb57829003601f168201915b5050505050905090565b6033546001600160a01b031633146105815760405162461bcd60e51b815260206004820181905260248201527f4f776e61626c653a2063616c6c6572206973206e6f7420746865206f776e657260448201526064015b60405180910390fd5b806000036105a2576040516335b2083960e01b815260040160405180910390fd5b60fe5460408051918252602082018390527fe5f68083dea62da883cd798293e1c21d050b1fb0d77ef46e71ac77e5bab35334910160405180910390a160fe55565b6002606554036106355760405162461bcd60e51b815260206004820152601f60248201527f5265656e7472616e637947756172643a207265656e7472616e742063616c6c006044820152606401610578565b600260655560975460ff16156106805760405162461bcd60e51b815260206004820152601060248201526f14185d5cd8589b194e881c185d5cd95960821b6044820152606401610578565b3360008181526101006020526040902054156106af5760405163291c4c3360e11b815260040160405180910390fd5b816000036106d0576040516335b2083960e01b815260040160405180910390fd5b33600090815260fb602052604090208054831115610701576040516315ff6d9960e01b815260040160405180910390fd5b42600182015580548390829060009061071b908490612545565b909155506000905061072c3361168f565b90506000818360020154610740919061255c565b33600090815260c9602052604090205461075a9190612545565b905061076633826116c0565b60fc5461077d906001600160a01b03163387611820565b60405185815233907f884edad9ce6fa2440d8a54cc123490eb96d2768479d49ff9c7366125a94243649060200160405180910390a250506001606555505050565b6033546001600160a01b031633146108185760405162461bcd60e51b815260206004820181905260248201527f4f776e61626c653a2063616c6c6572206973206e6f7420746865206f776e65726044820152606401610578565b6108206118b0565b565b60006001600160a01b03821661084b57604051632682895960e01b815260040160405180910390fd5b6001600160a01b038216600090815260fb602090815260408083208151608081018352815481526001820154938101849052600282015492810192909252600301546060820152919061089e9042612545565b905060006108ab8561168f565b905060006108ca846000015160fe54856108c5919061255c565b61194c565b905060008285604001516108de919061255c565b6001600160a01b038816600090815260c960205260409020546109019190612545565b90506000838660000151610915919061255c565b905080821015610952578061092a848461257b565b11156109465761093a8282612545565b98975050505050505050565b50909695505050505050565b506000979650505050505050565b6002606554036109b25760405162461bcd60e51b815260206004820152601f60248201527f5265656e7472616e637947756172643a207265656e7472616e742063616c6c006044820152606401610578565b600260655560975460ff16156109fd5760405162461bcd60e51b815260206004820152601060248201526f14185d5cd8589b194e881c185d5cd95960821b6044820152606401610578565b33600090815260fb60205260408120549003610a2c576040516335b2083960e01b815260040160405180910390fd5b610a3533611987565b6001606555565b33600090815260ff602081905260409091205416610a6d57604051634c6369f560e11b815260040160405180910390fd5b610a7782826116c0565b6040518181526001600160a01b0383169033907f328d8154330bcd4dcd7155cf078d035b2cfe5583bc1ee6eaae7938545cf769e4906020015b60405180910390a35050565b6033546001600160a01b03163314610b165760405162461bcd60e51b815260206004820181905260248201527f4f776e61626c653a2063616c6c6572206973206e6f7420746865206f776e65726044820152606401610578565b6108206000611a06565b33600090815260ff602081905260409091205416610b5157604051634c6369f560e11b815260040160405180910390fd5b6001600160a01b038216600090815260c9602090815260408083205461010090925290912054610b8290839061257b565b1115610ba15760405163079ecc5560e51b815260040160405180910390fd5b610bab8282611a65565b6040518181526001600160a01b0383169033907fa5a2b488a483d1bbe535981f44e44fa199ef9b3e42197722dbe4661c0f83f08790602001610ab0565b6033546001600160a01b03163314610c425760405162461bcd60e51b815260206004820181905260248201527f4f776e61626c653a2063616c6c6572206973206e6f7420746865206f776e65726044820152606401610578565b6001600160a01b038116600081815260ff6020908152604091829020805460ff1916905590519182527f893420e140ed2c6edd05e5777bc12da0c95fae58afdc7489b371efc5f4b238cb91015b60405180910390a150565b600260655403610cec5760405162461bcd60e51b815260206004820152601f60248201527f5265656e7472616e637947756172643a207265656e7472616e742063616c6c006044820152606401610578565b600260655560975460ff1615610d375760405162461bcd60e51b815260206004820152601060248201526f14185d5cd8589b194e881c185d5cd95960821b6044820152606401610578565b80600003610d58576040516335b2083960e01b815260040160405180910390fd5b600060fe54670de0b6b3a764000060fd54610d73919061255c565b610d7d9190612593565b90506000610d8c82600261255c565b610d96904261257b565b33600090815260fb6020526040812060020180549293508592909190610dbd90849061257b565b909155505033600081815260fb6020526040902060030182905560fc54610df1916001600160a01b03909116903086611a97565b6000610dfc3361168f565b9050610e1133610e0c868461255c565b611ad5565b604080518581526020810184905233917f04f776f8541a42e1afd64d9da6f0d06963de15f3239e9fefc564deb64627b288910160405180910390a2505060016065555050565b6033546001600160a01b03163314610eb15760405162461bcd60e51b815260206004820181905260248201527f4f776e61626c653a2063616c6c6572206973206e6f7420746865206f776e65726044820152606401610578565b610820611bcf565b606060cd805461049f906124f5565b600260655403610f1a5760405162461bcd60e51b815260206004820152601f60248201527f5265656e7472616e637947756172643a207265656e7472616e742063616c6c006044820152606401610578565b600260655560975460ff1615610f655760405162461bcd60e51b815260206004820152601060248201526f14185d5cd8589b194e881c185d5cd95960821b6044820152606401610578565b33328114610fa7576001600160a01b038116600090815260ff602081905260409091205416610fa757604051634c6369f560e11b815260040160405180910390fd5b81600003610fc8576040516335b2083960e01b815260040160405180910390fd5b33600090815260fb60205260409020541561101057610fe633611987565b33600090815260fb60205260408120805484929061100590849061257b565b909155506110299050565b33600090815260fb602052604090204260018201558290555b60fc54611041906001600160a01b0316333085611a97565b60405182815233907fe1fffcc4923d04b559f4d29a8bfc6cda04eb5b0d3c460751c2402c5c5cc9109c9060200160405180910390a250506001606555565b6033546001600160a01b031633146110d95760405162461bcd60e51b815260206004820181905260248201527f4f776e61626c653a2063616c6c6572206973206e6f7420746865206f776e65726044820152606401610578565b806000036110fa576040516335b2083960e01b815260040160405180910390fd5b60fd5460408051918252602082018390527f62dddf41445412836e2d6efb42e6554a3ae782ae5d6400cc73dc641198da053a910160405180910390a160fd55565b60006111476001611c4a565b9050801561115f576000805461ff0019166101001790555b6001600160a01b03821661118657604051632682895960e01b815260040160405180910390fd5b6111fa6040518060400160405280601481526020017f566f746520457363726f77656420467572696f6e0000000000000000000000008152506040518060400160405280600581526020017f7665465552000000000000000000000000000000000000000000000000000000815250611d65565b611202611de2565b61120a611e55565b611212611ec0565b670de0b6b3a764000060fe55606460fd5560fc805473ffffffffffffffffffffffffffffffffffffffff19166001600160a01b0384161790558015611291576000805461ff0019169055604051600181527f7f26b83ff96e1f2b6a682f133852f6798a09c465da95921460cefb38474024989060200160405180910390a15b5050565b33600090815260ff6020819052604090912054166112c657604051634c6369f560e11b815260040160405180910390fd5b6001600160a01b038216600090815261010060205260409020548111156113005760405163079ecc5560e51b815260040160405180910390fd5b61130a8282611f37565b6040518181526001600160a01b0383169033907faf2e5d21bad72ab8d489ee3ec366750020aa62e19326aa4376174ba508d01de690602001610ab0565b6002606554036113995760405162461bcd60e51b815260206004820152601f60248201527f5265656e7472616e637947756172643a207265656e7472616e742063616c6c006044820152606401610578565b600260655560975460ff16156113e45760405162461bcd60e51b815260206004820152601060248201526f14185d5cd8589b194e881c185d5cd95960821b6044820152606401610578565b3360008181526101006020526040902054156114135760405163291c4c3360e11b815260040160405180910390fd5b33600090815260fb602090815260408083208151608081018352815481526001820154938101939093526002810154918301829052600301546060830152909103611471576040516335b2083960e01b815260040160405180910390fd5b8060600151421015611496576040516307be463f60e01b815260040160405180910390fd5b60006114a13361168f565b90506114bc338284604001516114b7919061255c565b6116c0565b33600081815260fb6020526040808220600281018390556003019190915583015160fc546114f5926001600160a01b0390911691611820565b5050600160655550565b6033546001600160a01b031633146115595760405162461bcd60e51b815260206004820181905260248201527f4f776e61626c653a2063616c6c6572206973206e6f7420746865206f776e65726044820152606401610578565b6001600160a01b0381166115d55760405162461bcd60e51b815260206004820152602660248201527f4f776e61626c653a206e6577206f776e657220697320746865207a65726f206160448201527f64647265737300000000000000000000000000000000000000000000000000006064820152608401610578565b6115de81611a06565b50565b6033546001600160a01b0316331461163b5760405162461bcd60e51b815260206004820181905260248201527f4f776e61626c653a2063616c6c6572206973206e6f7420746865206f776e65726044820152606401610578565b6001600160a01b038116600081815260ff6020908152604091829020805460ff1916600117905590519182527fbf309892cce19064e6d63ba3339f893b199c8cb5041fc6731702cb18e805d2919101610c8f565b60006001600160a01b0382166116b857604051632682895960e01b815260040160405180910390fd5b505060fd5490565b6001600160a01b0382166117205760405162461bcd60e51b815260206004820152602160248201527f45524332303a206275726e2066726f6d20746865207a65726f206164647265736044820152607360f81b6064820152608401610578565b6001600160a01b038216600090815260c96020526040902054818110156117945760405162461bcd60e51b815260206004820152602260248201527f45524332303a206275726e20616d6f756e7420657863656564732062616c616e604482015261636560f01b6064820152608401610578565b6001600160a01b038316600090815260c960205260408120838303905560cb80548492906117c3908490612545565b90915550506040518281526001600160a01b038416907fcc16f5dbb4873280815c1ee09dbd06736cffcc184412cf7a71a0fdb75d397ca59060200160405180910390a250506001600160a01b031660005260c9602052565b505050565b6040516001600160a01b03831660248201526044810182905261181b90849063a9059cbb60e01b906064015b60408051601f198184030181529190526020810180517bffffffffffffffffffffffffffffffffffffffffffffffffffffffff167fffffffff0000000000000000000000000000000000000000000000000000000090931692909217909152611f9a565b60975460ff166119025760405162461bcd60e51b815260206004820152601460248201527f5061757361626c653a206e6f74207061757365640000000000000000000000006044820152606401610578565b6097805460ff191690557f5db9ee0a495bf2e6ff9c91a7834c1ba4fdd244a5e8aa4e537bd38aeae4b073aa335b6040516001600160a01b03909116815260200160405180910390a1565b6000670de0b6b3a7640000611962600282612593565b61196c848661255c565b611976919061257b565b6119809190612593565b9392505050565b600061199282610822565b6001600160a01b038316600090815260fb60205260409020426001909101559050801561129157816001600160a01b03167fd8138f8a3f377c5259ca548e70e4c2de94f129f5a11036a15b69513cba2b426a826040516119f491815260200190565b60405180910390a26112918282611ad5565b603380546001600160a01b0383811673ffffffffffffffffffffffffffffffffffffffff19831681179093556040519116919082907f8be0079c531659141344cd1fd0a4f28419497f9722a3daafe3b4186f6b6457e090600090a35050565b6001600160a01b0382166000908152610100602052604081208054839290611a8e90849061257b565b90915550505050565b6040516001600160a01b0380851660248301528316604482015260648101829052611acf9085906323b872dd60e01b9060840161184c565b50505050565b6001600160a01b038216611b2b5760405162461bcd60e51b815260206004820152601f60248201527f45524332303a206d696e7420746f20746865207a65726f2061646472657373006044820152606401610578565b8060cb6000828254611b3d919061257b565b90915550506001600160a01b038216600090815260c9602052604081208054839290611b6a90849061257b565b90915550506040518181526001600160a01b038316907f0f6798a560793a54c3bcfe86a93cde1e73087d944c0ea20544137d41213968859060200160405180910390a26001600160a01b038216600090815260c9602052604090205461129190839082565b60975460ff1615611c155760405162461bcd60e51b815260206004820152601060248201526f14185d5cd8589b194e881c185d5cd95960821b6044820152606401610578565b6097805460ff191660011790557f62e78cea01bee320cd4e420270b5ea74000d11b0c9f74754ebdbfc544b05a25861192f3390565b60008054610100900460ff1615611cd8578160ff166001148015611c6d5750303b155b611cd05760405162461bcd60e51b815260206004820152602e60248201527f496e697469616c697a61626c653a20636f6e747261637420697320616c72656160448201526d191e481a5b9a5d1a585b1a5e995960921b6064820152608401610578565b506000919050565b60005460ff808416911610611d465760405162461bcd60e51b815260206004820152602e60248201527f496e697469616c697a61626c653a20636f6e747261637420697320616c72656160448201526d191e481a5b9a5d1a585b1a5e995960921b6064820152608401610578565b506000805460ff191660ff92909216919091179055600190565b919050565b600054610100900460ff16611dd05760405162461bcd60e51b815260206004820152602b60248201527f496e697469616c697a61626c653a20636f6e7472616374206973206e6f74206960448201526a6e697469616c697a696e6760a81b6064820152608401610578565b611dd861207f565b61129182826120ea565b600054610100900460ff16611e4d5760405162461bcd60e51b815260206004820152602b60248201527f496e697469616c697a61626c653a20636f6e7472616374206973206e6f74206960448201526a6e697469616c697a696e6760a81b6064820152608401610578565b61082061217c565b600054610100900460ff16610a355760405162461bcd60e51b815260206004820152602b60248201527f496e697469616c697a61626c653a20636f6e7472616374206973206e6f74206960448201526a6e697469616c697a696e6760a81b6064820152608401610578565b600054610100900460ff16611f2b5760405162461bcd60e51b815260206004820152602b60248201527f496e697469616c697a61626c653a20636f6e7472616374206973206e6f74206960448201526a6e697469616c697a696e6760a81b6064820152608401610578565b6097805460ff19169055565b6001600160a01b03821660009081526101006020526040902054811115611f71576040516315ff6d9960e01b815260040160405180910390fd5b6001600160a01b0382166000908152610100602052604081208054839290611a8e908490612545565b6000611fef826040518060400160405280602081526020017f5361666545524332303a206c6f772d6c6576656c2063616c6c206661696c6564815250856001600160a01b03166121f09092919063ffffffff16565b80519091501561181b578080602001905181019061200d91906125b5565b61181b5760405162461bcd60e51b815260206004820152602a60248201527f5361666545524332303a204552433230206f7065726174696f6e20646964206e60448201527f6f742073756363656564000000000000000000000000000000000000000000006064820152608401610578565b600054610100900460ff166108205760405162461bcd60e51b815260206004820152602b60248201527f496e697469616c697a61626c653a20636f6e7472616374206973206e6f74206960448201526a6e697469616c697a696e6760a81b6064820152608401610578565b600054610100900460ff166121555760405162461bcd60e51b815260206004820152602b60248201527f496e697469616c697a61626c653a20636f6e7472616374206973206e6f74206960448201526a6e697469616c697a696e6760a81b6064820152608401610578565b81516121689060cc906020850190612388565b50805161181b9060cd906020840190612388565b600054610100900460ff166121e75760405162461bcd60e51b815260206004820152602b60248201527f496e697469616c697a61626c653a20636f6e7472616374206973206e6f74206960448201526a6e697469616c697a696e6760a81b6064820152608401610578565b61082033611a06565b60606121ff8484600085612207565b949350505050565b60608247101561227f5760405162461bcd60e51b815260206004820152602660248201527f416464726573733a20696e73756666696369656e742062616c616e636520666f60448201527f722063616c6c00000000000000000000000000000000000000000000000000006064820152608401610578565b6001600160a01b0385163b6122d65760405162461bcd60e51b815260206004820152601d60248201527f416464726573733a2063616c6c20746f206e6f6e2d636f6e74726163740000006044820152606401610578565b600080866001600160a01b031685876040516122f291906125d7565b60006040518083038185875af1925050503d806000811461232f576040519150601f19603f3d011682016040523d82523d6000602084013e612334565b606091505b509150915061234482828661234f565b979650505050505050565b6060831561235e575081611980565b82511561236e5782518084602001fd5b8160405162461bcd60e51b8152600401610578919061244d565b828054612394906124f5565b90600052602060002090601f0160209004810192826123b657600085556123fc565b82601f106123cf57805160ff19168380011785556123fc565b828001600101855582156123fc579182015b828111156123fc5782518255916020019190600101906123e1565b5061240892915061240c565b5090565b5b80821115612408576000815560010161240d565b60005b8381101561243c578181015183820152602001612424565b83811115611acf5750506000910152565b602081526000825180602084015261246c816040850160208701612421565b601f01601f19169190910160400192915050565b60006020828403121561249257600080fd5b5035919050565b80356001600160a01b0381168114611d6057600080fd5b6000602082840312156124c257600080fd5b61198082612499565b600080604083850312156124de57600080fd5b6124e783612499565b946020939093013593505050565b600181811c9082168061250957607f821691505b60208210810361252957634e487b7160e01b600052602260045260246000fd5b50919050565b634e487b7160e01b600052601160045260246000fd5b6000828210156125575761255761252f565b500390565b60008160001904831182151516156125765761257661252f565b500290565b6000821982111561258e5761258e61252f565b500190565b6000826125b057634e487b7160e01b600052601260045260246000fd5b500490565b6000602082840312156125c757600080fd5b8151801515811461198057600080fd5b600082516125e9818460208701612421565b919091019291505056fea164736f6c634300080d000a",
  "devdoc": {
    "kind": "dev",
    "methods": {
      "addWhitelist(address)": {
        "details": "Only callable by the owner",
        "params": {
          "_account": "Address to add"
        }
      },
      "balanceOf(address)": {
        "details": "See {IERC20-balanceOf}."
      },
      "burnVeFUR(address,uint256)": {
        "details": "Only whitelisted contract      For future use, some contracts may need veFUR for entrance",
        "params": {
          "_amount": "Amount to burn",
          "_to": "Address to burn"
        }
      },
      "claimable(address)": {
        "params": {
          "_user": "User address"
        },
        "returns": {
          "_0": "claimableAmount Claimable amount of the user"
        }
      },
      "decimals()": {
        "details": "Returns the number of decimals used to get its user representation. For example, if `decimals` equals `2`, a balance of `505` tokens should be displayed to a user as `5.05` (`505 / 10 ** 2`). Tokens usually opt for a value of 18, imitating the relationship between Ether and Wei. This is the value {ERC20} uses, unless this function is overridden; NOTE: This information is only used for _display_ purposes: it in no way affects any of the arithmetic of the contract, including {IERC20-balanceOf} and {IERC20-transfer}."
      },
      "deposit(uint256)": {
        "details": "Only EOA or whitelisted contract address",
        "params": {
          "_amount": "Amount to deposit"
        }
      },
      "depositMaxTime(uint256)": {
        "details": "Release the max amount one time"
      },
      "lockVeFUR(address,uint256)": {
        "details": "Only whitelisted contract      Income sharing contract will lock veFUR as entrance",
        "params": {
          "_amount": "Amount to lock",
          "_to": "User address"
        }
      },
      "name()": {
        "details": "Returns the name of the token."
      },
      "owner()": {
        "details": "Returns the address of the current owner."
      },
      "paused()": {
        "details": "Returns true if the contract is paused, and false otherwise."
      },
      "removeWhitelist(address)": {
        "details": "Only callable by the owner",
        "params": {
          "_account": "Address to remove"
        }
      },
      "renounceOwnership()": {
        "details": "Leaves the contract without owner. It will not be possible to call `onlyOwner` functions anymore. Can only be called by the current owner. NOTE: Renouncing ownership will leave the contract without an owner, thereby removing any functionality that is only available to the owner."
      },
      "setGenerationRate(uint256)": {
        "params": {
          "_generationRate": "New generation rate"
        }
      },
      "setMaxCapRatio(uint256)": {
        "params": {
          "_maxCapRatio": "the new max ratio"
        }
      },
      "symbol()": {
        "details": "Returns the symbol of the token, usually a shorter version of the name."
      },
      "totalSupply()": {
        "details": "See {IERC20-totalSupply}."
      },
      "transferOwnership(address)": {
        "details": "Transfers ownership of the contract to a new account (`newOwner`). Can only be called by the current owner."
      },
      "unlockVeFUR(address,uint256)": {
        "params": {
          "_amount": "Amount to unlock",
          "_to": "User address"
        }
      },
      "withdraw(uint256)": {
        "details": "User will lose all veFUR once he withdrawed",
        "params": {
          "_amount": "Amount to withdraw"
        }
      }
    },
    "version": 1
  },
  "userdoc": {
    "kind": "user",
    "methods": {
      "addWhitelist(address)": {
        "notice": "Add a new whitelist address"
      },
      "burnVeFUR(address,uint256)": {
        "notice": "Burn veFUR"
      },
      "claim()": {
        "notice": "Claims accumulated veFUR for flex deposit"
      },
      "claimable(address)": {
        "notice": "Calculate the amount of veFUR that can be claimed by user"
      },
      "deposit(uint256)": {
        "notice": "Depisit Furion for veFUR"
      },
      "depositMaxTime(uint256)": {
        "notice": "Deposit for the max time"
      },
      "lockVeFUR(address,uint256)": {
        "notice": "Lock veFUR token"
      },
      "removeWhitelist(address)": {
        "notice": "Remove a new whitelist address"
      },
      "setGenerationRate(uint256)": {
        "notice": "Set generationRate"
      },
      "setMaxCapRatio(uint256)": {
        "notice": "Set maxCap ratio"
      },
      "unlockVeFUR(address,uint256)": {
        "notice": "Unlock veFUR token"
      },
      "withdraw(uint256)": {
        "notice": "Withdraw Furion token"
      },
      "withdrawLocked()": {
        "notice": "Withdraw all the locked veFUR"
      }
    },
    "version": 1
  },
  "storageLayout": {
    "storage": [
      {
        "astId": 130,
        "contract": "contracts/furion-staking/VoteEscrowedFurion.sol:VoteEscrowedFurion",
        "label": "_initialized",
        "offset": 0,
        "slot": "0",
        "type": "t_uint8"
      },
      {
        "astId": 133,
        "contract": "contracts/furion-staking/VoteEscrowedFurion.sol:VoteEscrowedFurion",
        "label": "_initializing",
        "offset": 1,
        "slot": "0",
        "type": "t_bool"
      },
      {
        "astId": 719,
        "contract": "contracts/furion-staking/VoteEscrowedFurion.sol:VoteEscrowedFurion",
        "label": "__gap",
        "offset": 0,
        "slot": "1",
        "type": "t_array(t_uint256)50_storage"
      },
      {
        "astId": 10,
        "contract": "contracts/furion-staking/VoteEscrowedFurion.sol:VoteEscrowedFurion",
        "label": "_owner",
        "offset": 0,
        "slot": "51",
        "type": "t_address"
      },
      {
        "astId": 122,
        "contract": "contracts/furion-staking/VoteEscrowedFurion.sol:VoteEscrowedFurion",
        "label": "__gap",
        "offset": 0,
        "slot": "52",
        "type": "t_array(t_uint256)49_storage"
      },
      {
        "astId": 390,
        "contract": "contracts/furion-staking/VoteEscrowedFurion.sol:VoteEscrowedFurion",
        "label": "_status",
        "offset": 0,
        "slot": "101",
        "type": "t_uint256"
      },
      {
        "astId": 434,
        "contract": "contracts/furion-staking/VoteEscrowedFurion.sol:VoteEscrowedFurion",
        "label": "__gap",
        "offset": 0,
        "slot": "102",
        "type": "t_array(t_uint256)49_storage"
      },
      {
        "astId": 286,
        "contract": "contracts/furion-staking/VoteEscrowedFurion.sol:VoteEscrowedFurion",
        "label": "_paused",
        "offset": 0,
        "slot": "151",
        "type": "t_bool"
      },
      {
        "astId": 375,
        "contract": "contracts/furion-staking/VoteEscrowedFurion.sol:VoteEscrowedFurion",
        "label": "__gap",
        "offset": 0,
        "slot": "152",
        "type": "t_array(t_uint256)49_storage"
      },
      {
        "astId": 6212,
        "contract": "contracts/furion-staking/VoteEscrowedFurion.sol:VoteEscrowedFurion",
        "label": "_balances",
        "offset": 0,
        "slot": "201",
        "type": "t_mapping(t_address,t_uint256)"
      },
      {
        "astId": 6218,
        "contract": "contracts/furion-staking/VoteEscrowedFurion.sol:VoteEscrowedFurion",
        "label": "_allowances",
        "offset": 0,
        "slot": "202",
        "type": "t_mapping(t_address,t_mapping(t_address,t_uint256))"
      },
      {
        "astId": 6220,
        "contract": "contracts/furion-staking/VoteEscrowedFurion.sol:VoteEscrowedFurion",
        "label": "_totalSupply",
        "offset": 0,
        "slot": "203",
        "type": "t_uint256"
      },
      {
        "astId": 6222,
        "contract": "contracts/furion-staking/VoteEscrowedFurion.sol:VoteEscrowedFurion",
        "label": "_name",
        "offset": 0,
        "slot": "204",
        "type": "t_string_storage"
      },
      {
        "astId": 6224,
        "contract": "contracts/furion-staking/VoteEscrowedFurion.sol:VoteEscrowedFurion",
        "label": "_symbol",
        "offset": 0,
        "slot": "205",
        "type": "t_string_storage"
      },
      {
        "astId": 6463,
        "contract": "contracts/furion-staking/VoteEscrowedFurion.sol:VoteEscrowedFurion",
        "label": "__gap",
        "offset": 0,
        "slot": "206",
        "type": "t_array(t_uint256)45_storage"
      },
      {
        "astId": 6508,
        "contract": "contracts/furion-staking/VoteEscrowedFurion.sol:VoteEscrowedFurion",
        "label": "users",
        "offset": 0,
        "slot": "251",
        "type": "t_mapping(t_address,t_struct(UserInfo)6503_storage)"
      },
      {
        "astId": 6511,
        "contract": "contracts/furion-staking/VoteEscrowedFurion.sol:VoteEscrowedFurion",
        "label": "furion",
        "offset": 0,
        "slot": "252",
        "type": "t_contract(IERC20)1959"
      },
      {
        "astId": 6513,
        "contract": "contracts/furion-staking/VoteEscrowedFurion.sol:VoteEscrowedFurion",
        "label": "maxCapRatio",
        "offset": 0,
        "slot": "253",
        "type": "t_uint256"
      },
      {
        "astId": 6515,
        "contract": "contracts/furion-staking/VoteEscrowedFurion.sol:VoteEscrowedFurion",
        "label": "generationRate",
        "offset": 0,
        "slot": "254",
        "type": "t_uint256"
      },
      {
        "astId": 6522,
        "contract": "contracts/furion-staking/VoteEscrowedFurion.sol:VoteEscrowedFurion",
        "label": "whitelist",
        "offset": 0,
        "slot": "255",
        "type": "t_mapping(t_address,t_bool)"
      },
      {
        "astId": 6526,
        "contract": "contracts/furion-staking/VoteEscrowedFurion.sol:VoteEscrowedFurion",
        "label": "locked",
        "offset": 0,
        "slot": "256",
        "type": "t_mapping(t_address,t_uint256)"
      }
    ],
    "types": {
      "t_address": {
        "encoding": "inplace",
        "label": "address",
        "numberOfBytes": "20"
      },
      "t_array(t_uint256)45_storage": {
        "base": "t_uint256",
        "encoding": "inplace",
        "label": "uint256[45]",
        "numberOfBytes": "1440"
      },
      "t_array(t_uint256)49_storage": {
        "base": "t_uint256",
        "encoding": "inplace",
        "label": "uint256[49]",
        "numberOfBytes": "1568"
      },
      "t_array(t_uint256)50_storage": {
        "base": "t_uint256",
        "encoding": "inplace",
        "label": "uint256[50]",
        "numberOfBytes": "1600"
      },
      "t_bool": {
        "encoding": "inplace",
        "label": "bool",
        "numberOfBytes": "1"
      },
      "t_contract(IERC20)1959": {
        "encoding": "inplace",
        "label": "contract IERC20",
        "numberOfBytes": "20"
      },
      "t_mapping(t_address,t_bool)": {
        "encoding": "mapping",
        "key": "t_address",
        "label": "mapping(address => bool)",
        "numberOfBytes": "32",
        "value": "t_bool"
      },
      "t_mapping(t_address,t_mapping(t_address,t_uint256))": {
        "encoding": "mapping",
        "key": "t_address",
        "label": "mapping(address => mapping(address => uint256))",
        "numberOfBytes": "32",
        "value": "t_mapping(t_address,t_uint256)"
      },
      "t_mapping(t_address,t_struct(UserInfo)6503_storage)": {
        "encoding": "mapping",
        "key": "t_address",
        "label": "mapping(address => struct VoteEscrowedFurion.UserInfo)",
        "numberOfBytes": "32",
        "value": "t_struct(UserInfo)6503_storage"
      },
      "t_mapping(t_address,t_uint256)": {
        "encoding": "mapping",
        "key": "t_address",
        "label": "mapping(address => uint256)",
        "numberOfBytes": "32",
        "value": "t_uint256"
      },
      "t_string_storage": {
        "encoding": "bytes",
        "label": "string",
        "numberOfBytes": "32"
      },
      "t_struct(UserInfo)6503_storage": {
        "encoding": "inplace",
        "label": "struct VoteEscrowedFurion.UserInfo",
        "members": [
          {
            "astId": 6496,
            "contract": "contracts/furion-staking/VoteEscrowedFurion.sol:VoteEscrowedFurion",
            "label": "amount",
            "offset": 0,
            "slot": "0",
            "type": "t_uint256"
          },
          {
            "astId": 6498,
            "contract": "contracts/furion-staking/VoteEscrowedFurion.sol:VoteEscrowedFurion",
            "label": "lastRelease",
            "offset": 0,
            "slot": "1",
            "type": "t_uint256"
          },
          {
            "astId": 6500,
            "contract": "contracts/furion-staking/VoteEscrowedFurion.sol:VoteEscrowedFurion",
            "label": "amountLocked",
            "offset": 0,
            "slot": "2",
            "type": "t_uint256"
          },
          {
            "astId": 6502,
            "contract": "contracts/furion-staking/VoteEscrowedFurion.sol:VoteEscrowedFurion",
            "label": "lockUntil",
            "offset": 0,
            "slot": "3",
            "type": "t_uint256"
          }
        ],
        "numberOfBytes": "128"
      },
      "t_uint256": {
        "encoding": "inplace",
        "label": "uint256",
        "numberOfBytes": "32"
      },
      "t_uint8": {
        "encoding": "inplace",
        "label": "uint8",
        "numberOfBytes": "1"
      }
    }
  }
}